:020000040800F2
:1000000000000220B51100080911000811110008B4
:100010001911000821110008291100080000000032
:100020000000000000000000000000003111000886
:100030003F110008000000004D1100085B1100088E
:100040000512000805120008051200080512000834
:100050000512000805120008671100087511000854
:100060000512000805120008051200080512000814
:100070000512000805120008051200080512000804
:1000800005120008051200080512000805120008F4
:100090000512000805120008051200088311000867
:1000A00005120008051200080512000805120008D4
:1000B00005120008051200080512000805120008C4
:1000C00005120008051200080512000805120008B4
:1000D00005120008051200080512000805120008A4
:1000E0000512000805120008051200080512000894
:1000F0000512000805120008051200080512000884
:100100000512000805120008051200080512000873
:100110000512000805120008051200080512000863
:100120000512000805120008051200080512000853
:100130000512000805120008051200080512000843
:100140000512000805120008051200080512000833
:100150000512000805120008051200080512000823
:100160000512000805120008051200080512000813
:100170000512000805120008051200080000000022
:08018000051200080512000839
:1001880010B5054C237833B9044B13B10448AFF3C9
:1001980000800123237010BD1C0000200000000017
:1001A8005C3A000808B5034B1BB103490348AFF399
:1001B800008008BD00000000200000205C3A000814
:1001C80053B94AB9002908BF00281CBF4FF0FF31B6
:1001D8004FF0FF3000F088B9ADF1080C6DE904CE9E
:1001E80000F006F8DDF804E0DDE9022304B070470A
:1001F8002DE9F047089D8E4604468846002B4AD1D3
:100208008A42174662D9B2FA82F64EB1C6F1200385
:1002180001FA06F820FA03F3B74043EA0808B440A5
:100228004FEA174E1FFA87FCB8FBFEF1230C0EFBB2
:10023800118843EA084301FB0CF29A4209D9FB18DA
:1002480001F1FF3080F0EA809A4240F2E7800239FB
:100258003B449A1AA3B2B2FBFEF00EFB102243EA0B
:10026800024300FB0CFC9C4509D9FB1800F1FF3246
:1002780080F0D6809C4540F2D3803B44023840EA67
:100288000140A3EB0C0300211DB1F3400022C5E996
:100298000032BDE8F0878B4205D90DB1C5E90001F0
:1002A80000210846F5E7B3FA83F1002946D17345E2
:1002B80002D3824200F20581841A6EEB0302012008
:1002C8009046002DE5D0C5E90048E2E7002A00F095
:1002D8009080B2FA82F6002E40F0A4808A1A030CAD
:1002E8004FEA174E80B2BCB20121B2FBFEFC0EFBF6
:1002F8001C2243EA024304FB0CF29A4207D9FB187A
:100308000CF1FF3802D29A4200F2E080C4469B1AF0
:10031800B3FBFEF20EFB123340EA034302FB04F484
:100328009C4207D9FB1802F1FF3002D29C4200F22E
:10033800CA8002461B1B42EA0C40A5E7C1F1200611
:100348008B4022FA06F71F430EFA01F420FA06F34F
:100358002EFA06FE4FEA1749234300FA01F81FFA5E
:1003680087FCBEFBF9F01C0C09FB10EE44EA0E44B6
:1003780000FB0CFEA64502FA01F209D93C1900F16E
:10038800FF3A80F09C80A64540F2998002383C44B0
:10039800A4EB0E041FFA83FEB4FBF9F309FB134424
:1003A8004EEA044403FB0CFCA44508D93C1903F1AC
:1003B800FF3E80F08280A4457FD9023B3C4443EA5B
:1003C8000040A4EB0C04A0FB02EC64457346E14634
:1003D80062D35FD05DB1B8EB030264EB090404FAA1
:1003E80006F622FA01F31E43CC40C5E90064002159
:1003F8004FE7B1FBF2FC010C41EA0E4180B240EA42
:1004080001423B4638463C46B846BE462026B1FB2C
:10041800F7F1A2EB080241EA0C4166E7014618E74A
:1004280010462CE7C6F120022EFA02F3B740B1407D
:1004380020FA02F24FEA174E0A43B3FBFEF8BCB2A9
:100448000EFB1833110C41EA034108FB04F9B040D4
:1004580089454FEA104380B23ED9791808F1FF3C2C
:1004680001D289451FD8A1EB0901B1FBFEF909FBAF
:1004780004F80EFB191192B242EA0142424529D210
:10048800BA1809F1FF31C4D24245C2D2A9F102011A
:100498003A44BEE7F0459DD2BEEB02036CEB070C75
:1004A8000138E14696E7A7EB09094944A8F1020C8F
:1004B800B1FBFEF909FB04F8DBE773467FE750461A
:1004C80066E70846FDE63B44023A33E7ACF1020C26
:1004D8003B441CE749469CE7A1EB0901C446B1FB34
:1004E800FEF909FB04F8C4E7704700BF80B582B085
:1004F80000AF0346FB71384AFB791370374B08226B
:100508001A70374B00221A70334B1B78012B07D90E
:10051800334B1B7843F00803DAB2314B1A7006E00C
:100528002F4B1B7843F00403DAB22D4B1A7000F0FE
:1005380087F9322000F0D6FE284B1B78184600F0C9
:1005480045F94FF47A7000F0CDFE302000F02CF918
:1005580041F2941000F09EF9302000F025F941F2A4
:10056800941000F097F9302000F01EF941F2941031
:1005780000F090F9202000F017F9642000F08AF9C3
:10058800174B1B7843F02003DBB2184600F0CFF876
:10059800144B04221A7000F075F800F02BF8124B77
:1005A80002221A70104B1B7843F00403DBB2184682
:1005B80000F0BDF841F2941000F06CF90B490020EE
:1005C80000F076F80A49012000F072F800F01DF8F2
:1005D80000BF0837BD4680BD3B0000203C0000201E
:1005E80038000020390000203A00002000000020D8
:1005F8000800002080B500AF012000F098F84FF403
:10060800FA6000F047F900BF80BD80B500AF022056
:1006180000F08DF84FF4FA6000F03CF900BF80BD9F
:1006280090B587B000AF03460A46FB711346BB710D
:10063800124B07F108040FCB84E80F00104B1B780E
:10064800BA799A4203D30E4B1B78013BBB71BB7935
:100658009B0018333B4453F8103CDAB2FB7913443F
:10066800DBB25BB263F07F035BB2DBB2184600F02B
:100678005EF800BF1C37BD4690BD00BF743A000845
:100688003B00002080B500AF084B1B7843F0040303
:10069800DAB2064B1A70054B1B7843F00803DBB23D
:1006A800184600F044F800BF80BD00BF39000020A4
:1006B80080B584B000AF03463960FB71FB7903F065
:1006C8000703FB7197F90730DB005BB243F0400387
:1006D8005BB2DBB2184600F02AF80023FB6009E0A1
:1006E800FB683A6813441B78184600F02EF8FB683C
:1006F8000133FB60FB68072BF2DD00BF00BF10373A
:10070800BD4680BD80B582B000AF786006E07B68EA
:100718005A1C7A601B78184600F017F87B681B781B
:10072800002BF4D100BF00BF0837BD4680BD80B59F
:1007380082B000AF0346FB71FB790021184600F038
:1007480012F800BF0837BD4680BD80B582B000AF43
:100758000346FB71FB790121184600F004F800BF3D
:100768000837BD4680BD80B584B000AF03460A4651
:10077800FB711346BB71FB7923F00F03FB73FB7905
:100788001B01BB73FA7BBB791343DBB2184600F03D
:100798000BF8BA7BBB791343DBB2184600F004F8B8
:1007A80000BF1037BD4680BD80B582B000AF03469C
:1007B800FB71FB79184600F009F8FB79184600F040
:1007C80021F800BF0837BD4680BD000080B586B05F
:1007D80002AF0346FB71094B1A78FB791343DBB26E
:1007E800FB7307F10F020A23009301234E210448EB
:1007F80001F0D8F900BF1037BD4680BD3C0000208D
:100808004000002080B582B000AF0346FB71FB7941
:1008180043F00403DBB21846FFF7D8FF142000F0BA
:1008280039F8FB7923F00403DBB21846FFF7CEFF53
:10083800142000F02FF800BF0837BD4680BD000027
:1008480080B400AF114BDB68104A23F08073D3608B
:100858000E4BDB680D4A43F08073D3600C4B1B686A
:100868000B4A23F001031360094B1B68084A43F045
:1008780001031360064B00225A6000BF00BF00BF8F
:1008880000BFBD465DF8047B704700BFF0ED00E097
:10089800001000E080B487B000AF78600E4B1B6892
:1008A8000E4AA2FB03239A0C7B6802FB03F37B61CD
:1008B8000B4B5B683B610A4B5A683B69D31AFB6078
:1008C800FB687A699A42F6D800BF00BF1C37BD465C
:1008D8005DF8047B704700BF1000002083DE1B43D7
:1008E800001000E080B584B000AF0346FB80FB88B1
:1008F800402B52D1704B1B68002B0CBF01230023E7
:10090800DBB21A466C4B1A606B4B1B68002B22D06B
:1009180001224FF48051694800F0CEFF00224FF4C5
:100928000041664800F0C8FF00224FF400516348B8
:1009380000F0C2FFFFF75EFE00210020FFF770FE07
:100948005F48FFF7DFFE01210020FFF769FE5D48E1
:10095800FFF7D8FE21E000224FF48051574800F0FD
:10096800ABFF00224FF40041544800F0A5FF0022DD
:100978004FF40051514800F09FFFFFF73BFE002164
:100988000020FFF74DFE4E48FFF7BCFE0121002076
:10099800FFF746FE4C48FFF7B5FEFB88012B3FD119
:1009A800454B1B68002B3BD00121484800F06CFFE9
:1009B8000346FB73FB7B012B19D0454B00221A70B1
:1009C80000224FF400413D4800F076FFFFF712FE89
:1009D80000210020FFF724FE3E48FFF793FE012187
:1009E8000020FFF71DFE3C48FFF78CFE18E0384B4F
:1009F80001221A7001224FF40041304800F05CFFD8
:100A0800FFF7F8FD00210020FFF70AFE3348FFF743
:100A180079FE01210020FFF703FE3148FFF772FE3F
:100A2800FB88022B44D1244B1B68002B40D00221A9
:100A3800264800F029FF0346BB73BB7B012B1DD161
:100A480001224FF400511D4800F036FF00212548CF
:100A580002F02EF9244B01221A60FFF7CBFD00218A
:100A68000020FFF7DDFD2148FFF74CFE01210020A3
:100A7800FFF7D6FD1E48FFF745FE19E0002119488B
:100A880002F0DEF900224FF400510C4800F014FF88
:100A9800FFF7B0FD00210020FFF7C2FD1548FFF762
:100AA80031FE01210020FFF7BBFD1348FFF72AFEA6
:100AB80000BF1037BD4680BDDC000020000C02409E
:100AC800843A00088C3A0008903A00080000024076
:100AD800E4000020943A0008A83A0008B83A000850
:100AE800CC3A000894000020E0000020DC3A00081E
:100AF800E83A0008F83A0008043B000880B500AF5F
:100B080000F07EFB00F032F800F068F900F096F88B
:100B180000F0C2F80220FFF7E9FCFFF76BFD0021A7
:100B28000020FFF77DFD0D48FFF7ECFD01210020B7
:100B3800FFF776FD0A48FFF7E5FD0A4B1B68012B16
:100B4800FBD14FF4FA7000F0CDFB0021064802F00B
:100B580077F9044B00221A60EFE700BF143B000846
:100B6800203B0008E00000209400002080B594B0ED
:100B780000AF07F1200330220021184602F03EFFA3
:100B880007F10C0300221A605A609A60DA601A6151
:100B98000023BB60274B1B6C264A43F08053136429
:100BA800244B1B6C03F08053BB60BB6800237B6045
:100BB800214B1B68204A43F4804313601E4B1B687B
:100BC80003F480437B607B6801233B624FF48033EE
:100BD8007B620223BB634FF48003FB6304233B6403
:100BE80032237B640223BB640423FB6407F12003E4
:100BF800184601F031FB0346002B01D000F0AEF996
:100C08000F23FB6002233B6100237B614FF4805379
:100C1800BB610023FB6107F10C030121184601F0B9
:100C280093FD0346002B01D000F098F900BF503720
:100C3800BD4680BD003802400070004080B500AF5E
:100C4800124B134A1A60114B124A5A600F4B00227A
:100C58009A600E4B0022DA600C4B4FF480421A6106
:100C68000A4B00225A61094B00229A61074B002265
:100C7800DA61064B00221A62044800F04FFE034670
:100C8800002B01D000F06AF900BF80BD40000020B1
:100C980000540040A086010080B596B000AF07F16F
:100CA800480300221A605A609A60DA6007F140032C
:100CB80000221A605A6007F1240300221A605A6061
:100CC8009A60DA601A615A619A613B1D20220021FC
:100CD800184602F093FE3F4B3F4A1A603D4B0022F4
:100CE8005A603C4B00229A603A4B4FF47A72DA60B1
:100CF800384B00221A61374B00225A61354B0022CB
:100D08009A61344801F02CFF0346002B01D000F013
:100D180025F94FF48053BB6407F1480319462D4861
:100D280002F0C0F90346002B01D000F017F929485A
:100D380001F065FF0346002B01D000F00FF90023F6
:100D48003B6400237B6407F140031946214802F005
:100D580087FD0346002B01D000F000F960237B6279
:100D68004FF4FA73BB620023FB6200233B6300234A
:100D78007B630023BB630023FB6307F1240300228A
:100D88001946144802F0CCF80346002B01D000F0B5
:100D9800E5F800237B600023BB600023FB60002391
:100DA8003B6100237B614FF40053BB6100233B622E
:100DB8003B1D1946074802F0CFFD0346002B01D022
:100DC80000F0CCF8034800F061F900BF5837BD4681
:100DD80080BD00BF940000200000014080B58CB0A9
:100DE80000AF07F11C0300221A605A609A60DA60AB
:100DF8001A610023BB61554B1B6B544A43F08003B7
:100E08001363524B1B6B03F08003BB61BB69002368
:100E18007B614E4B1B6B4D4A43F0010313634B4BF5
:100E28001B6B03F001037B617B6900233B61474B2C
:100E38001B6B464A43F010031363444B1B6B03F0D0
:100E480010033B613B690023FB60404B1B6B3F4A2F
:100E580043F0080313633D4B1B6B03F00803FB606F
:100E6800FB680023BB60394B1B6B384A43F0040313
:100E78001363364B1B6B03F00403BB60BB68002392
:100E88007B60324B1B6B314A43F0020313632F4BD9
:100E98001B6B03F002037B607B6800224FF4304138
:100EA8002B4800F009FD0123FB614FF444133B621A
:100EB80000237B6207F11C031946264800F048FB13
:100EC8000223FB614FF444133B6201237B6207F169
:100ED8001C0319461F4800F03BFB4FF43043FB61ED
:100EE80001233B6200237B620023BB6207F11C03E2
:100EF8001946174800F02CFB4023FB614FF4881378
:100F08003B6202237B6207F11C031946124800F07A
:100F18001FFB00220021062000F0E3FA062000F063
:100F2800FCFA00220021072000F0DBFA072000F07D
:100F3800F4FA00220021172000F0D3FA172000F05D
:100F4800ECFA00BF3037BD4680BD00BF0038024014
:100F5800000C0240000002400008024080B400AFCC
:100F680072B600BF00BFFDE780B483B000AF0023B6
:100F78007B60104B5B6C0F4A43F4804353640D4B0A
:100F88005B6C03F480437B607B6800233B60094B08
:100F98001B6C084A43F080531364064B1B6C03F028
:100FA80080533B603B6800BF0C37BD465DF8047B4F
:100FB800704700BF0038024080B58AB000AF786043
:100FC80007F1140300221A605A609A60DA601A6105
:100FD8007B681B68194A93422BD100233B61184B4D
:100FE8001B6B174A43F002031363154B1B6B03F08B
:100FF80002033B613B69C0237B611223BB61002371
:10100800FB6103233B6204237B6207F11403194647
:101018000C4800F09DFA0023FB60094B1B6C084A42
:1010280043F400131364064B1B6C03F40013FB60BA
:10103800FB6800BF2837BD4680BD00BF0054004094
:10104800003802400004024080B485B000AF7860E8
:101058007B681B680B4A93420DD10023FB600A4B47
:101068005B6C094A43F001035364074B5B6C03F064
:101078000103FB60FB6800BF1437BD465DF8047BC5
:10108800704700BF000001400038024080B588B0BA
:1010980000AF786007F10C0300221A605A609A606A
:1010A800DA601A617B681B68124A93421ED10023DA
:1010B800BB60114B1B6B104A43F0100313630E4BBC
:1010C8001B6B03F01003BB60BB684FF40073FB603D
:1010D80002233B6100237B610023BB610123FB6189
:1010E80007F10C031946054800F032FA00BF203713
:1010F800BD4680BD0000014000380240001002409B
:1011080080B400AF00BFFDE780B400AF00BFFDE7CB
:1011180080B400AF00BFFDE780B400AF00BFFDE7BB
:1011280080B400AF00BFFDE780B400AF00BFBD468C
:101138005DF8047B704780B400AF00BFBD465DF822
:10114800047B704780B400AF00BFBD465DF8047BE8
:10115800704780B500AF00F0A5F800BF80BD80B52E
:1011680000AF012000F0C2FB00BF80BD80B500AF1A
:10117800022000F0BBFB00BF80BD80B500AF40205F
:1011880000F0B4FB00BF80BD80B400AF064BD3F8BD
:101198008830054A43F47003C2F8883000BFBD4662
:1011A8005DF8047B704700BF00ED00E0DFF834D045
:1011B800FFF7EAFF0C480D490D4A002302E0D45816
:1011C800C4500433C4188C42F9D30A4A0A4C002389
:1011D80001E013600432A242FBD302F017FCFFF7D0
:1011E8008DFC704700000220000000201C00002039
:1011F800543B00081C000020EC000020FEE7000023
:1012080080B500AF0E4B1B680D4A43F400731360A2
:101218000B4B1B680A4A43F480631360084B1B6836
:10122800074A43F480731360032000F04FF90F203E
:1012380000F008F8FFF798FE0023184680BD00BFAD
:10124800003C024080B582B000AF7860124B1A684B
:10125800124B1B7819464FF47A73B3FBF1F3B2FBC8
:10126800F3F3184600F067F90346002B01D0012379
:101278000EE07B680F2B0AD8002279684FF0FF3008
:1012880000F02FF9064A7B681360002300E0012371
:1012980018460837BD4680BD100000201800002001
:1012A8001400002080B400AF064B1B781A46064B8A
:1012B8001B681344044A136000BFBD465DF8047BF5
:1012C800704700BF18000020E800002080B400AF7D
:1012D800034B1B681846BD465DF8047B704700BF8A
:1012E800E800002080B584B000AF7860FFF7EEFF1B
:1012F800B8607B68FB60FB68B3F1FF3F05D00A4B21
:101308001B781A46FB681344FB6000BFFFF7DEFF3B
:101318000246BB68D31AFA689A42F7D800BF00BFE2
:101328001037BD4680BD00BF1800002080B485B0CE
:1013380000AF78607B6803F00703FB600C4BDB6849
:10134800BB60BA684FF6FF031340BB60FB681A0224
:10135800BB68134343F0BF6343F40033BB60044AE4
:10136800BB68D36000BF1437BD465DF8047B704787
:1013780000ED00E080B400AF044BDB681B0A03F00B
:1013880007031846BD465DF8047B704700ED00E092
:1013980080B483B000AF0346FB7197F90730002B88
:1013A8000BDBFB7903F01F02074997F907305B094C
:1013B800012000FA02F241F8232000BF0C37BD4695
:1013C8005DF8047B704700BF00E100E080B483B0A3
:1013D80000AF03463960FB7197F90730002B0ADB31
:1013E8003B68DAB20C4997F907301201D2B20B44C4
:1013F80083F800230AE03B68DAB20849FB7903F076
:101408000F03043B1201D2B20B441A7600BF0C370B
:10141800BD465DF8047B704700E100E000ED00E0A8
:1014280080B489B000AFF860B9607A60FB6803F0F7
:101438000703FB61FB69C3F10703042B28BF0423DF
:10144800BB61FB690433062B02D9FB69033B00E04F
:1014580000237B614FF0FF32BB6902FA03F3DA43E2
:10146800BB681A407B699A404FF0FF317B6901FAEB
:1014780003F3D9437B680B40134318462437BD4612
:101488005DF8047B7047000080B582B000AF7860DB
:101498007B68013BB3F1807F01D301230FE00A4A47
:1014A8007B68013B53600F214FF0FF30FFF78EFF41
:1014B800054B00229A60044B07221A600023184645
:1014C8000837BD4680BD00BF10E000E080B582B09F
:1014D80000AF78607868FFF729FF00BF0837BD467E
:1014E80080BD80B586B000AF0346B9607A60FB73F3
:1014F80000237B61FFF73EFF78617A68B9687869F5
:10150800FFF78EFF024697F90F3011461846FFF78E
:101518005DFF00BF1837BD4680BD80B582B000AF03
:101528000346FB7197F907301846FFF731FF00BFF4
:101538000837BD4680BD80B582B000AF7860786856
:10154800FFF7A2FF034618460837BD4680BD0000D6
:1015580080B489B000AF7860396000237B610023D4
:101568003B610023BB610023FB616BE10122FB6946
:1015780002FA03F37B613B681B687A6913403B619D
:101588003A697B699A4240F05A813B685B6803F08C
:101598000303012B05D03B685B6803F00303022BB0
:1015A80030D17B689B68BB61FB695B00032202FA50
:1015B80003F3DB43BA691340BB613B68DA68FB6934
:1015C8005B0002FA03F3BA691343BB617B68BA692B
:1015D8009A607B685B68BB610122FB6902FA03F3CE
:1015E800DB43BA691340BB613B685B681B0903F0C6
:1015F8000102FB6902FA03F3BA691343BB617B6812
:10160800BA695A603B685B6803F00303032B17D081
:101618007B68DB68BB61FB695B00032202FA03F3AA
:10162800DB43BA691340BB613B689A68FB695B009E
:1016380002FA03F3BA691343BB617B68BA69DA60DB
:101648003B685B6803F00303022B23D1FB69DA08CC
:101658007B68083253F82230BB61FB6903F007034B
:101668009B000F2202FA03F3DB43BA691340BB6104
:101678003B681A69FB6903F007039B0002FA03F34E
:10168800BA691343BB61FB69DA087B680832B96938
:1016980043F822107B681B68BB61FB695B0003226F
:1016A80002FA03F3DB43BA691340BB613B685B682A
:1016B80003F00302FB695B0002FA03F3BA69134300
:1016C800BB617B68BA691A603B685B6803F44033A6
:1016D800002B00F0B4800023FB60604B5B6C5F4A1A
:1016E80043F4804353645D4B5B6C03F48043FB60BD
:1016F800FB685B4AFB699B08023352F82330BB61E5
:10170800FB6903F003039B000F2202FA03F3DB4398
:10171800BA691340BB617B68524A93422BD07B68FD
:10172800514A934225D07B68504A93421FD07B6828
:101738004F4A934219D07B684E4A934213D07B6834
:101748004D4A93420DD07B684C4A934207D07B6840
:101758004B4A934201D107230EE008230CE00623ED
:101768000AE0052308E0042306E0032304E002233B
:1017780002E0012300E00023FA6902F0030292006C
:101788009340BA691343BB613549FB699B0802332F
:10179800BA6941F823203B4B9B68BB613B69DB433B
:1017A800BA691340BB613B685B6803F48013002B84
:1017B80003D0BA693B691343BB61324ABB69936082
:1017C800304BDB68BB613B69DB43BA691340BB61E3
:1017D8003B685B6803F40013002B03D0BA693B69CC
:1017E8001343BB61274ABB69D360264B5B68BB6167
:1017F8003B69DB43BA691340BB613B685B6803F430
:101808000033002B03D0BA693B691343BB611D4AFF
:10181800BB6953601B4B1B68BB613B69DB43BA69FF
:101828001340BB613B685B6803F48033002B03D033
:10183800BA693B691343BB61124ABB691360FB6910
:101848000133FB61FB690F2B7FF690AE00BF00BF31
:101858002437BD465DF8047B704700BF003802405E
:101868000038014000000240000402400008024025
:10187800000C024000100240001402400018024010
:10188800001C0240003C014080B485B000AF786085
:101898000B467B807B681A697B881340002B02D03B
:1018A8000123FB7301E00023FB73FB7B184614370D
:1018B800BD465DF8047B704780B483B000AF7860A4
:1018C8000B467B8013467B707B78002B03D07A888D
:1018D8007B689A6103E07B881A047B689A6100BF81
:1018E8000C37BD465DF8047B7047000080B582B0B8
:1018F80000AF0346FB80084B5A69FB881340002B56
:1019080006D0054AFB885361FB881846FEF7EAFFB4
:1019180000BF0837BD4680BD003C014080B584B09B
:1019280000AF78607B68002B01D101232BE17B6835
:1019380093F83D30DBB2002B06D17B68002283F898
:101948003C207868FFF738FB7B68242283F83D2029
:101958007B681B681A687B681B6822F001021A60A2
:101968007B681B681A687B681B6842F400421A602F
:101978007B681B681A687B681B6822F400421A603F
:1019880001F0DAF8F8607B685B68814A934207D80F
:10199800FB68804A934294BF01230023DBB206E030
:1019A800FB687D4A934294BF01230023DBB2002BDE
:1019B80001D00123E7E0FB68784AA2FB03239B0CD4
:1019C800BB607B681B685B6823F03F017B681B6812
:1019D800BA680A435A607B681B681B6A23F03F0198
:1019E8007B685B686A4A934202D8BB68013309E0A6
:1019F800BB684FF4967202FB03F3694AA2FB032308
:101A08009B0901337A6812680B4313627B681B6871
:101A1800DB6923F44F4222F0FF027B685B685C4974
:101A28008B4219D8FB68591E7B685B685B00B1FB69
:101A3800F3F3591C40F6FC730B40002B0AD0FB68EB
:101A4800591E7B685B685B00B1FBF3F30133C3F39A
:101A58000B0351E004234FE07B689B68002B11D1F6
:101A6800FB68581E7B6859680B465B000B44B0FB4B
:101A7800F3F30133C3F30B03002B0CBF0123002343
:101A8800DBB212E0FB68581E7B6859680B469B0066
:101A98000B4499000B44B0FBF3F30133C3F30B037E
:101AA800002B0CBF01230023DBB2002B01D0012344
:101AB80022E07B689B68002B0ED1FB68581E7B6870
:101AC80059680B465B000B44B0FBF3F30133C3F3D7
:101AD8000B0343F400430FE0FB68581E7B6859680A
:101AE8000B469B000B4499000B44B0FBF3F3013306
:101AF800C3F30B0343F44043796809681343CB618C
:101B08007B681B681B6823F0C0017B68DA697B6807
:101B18001B6A1A437B681B680A431A607B681B6848
:101B28009B6823F4034323F0FF037A6811697A68FA
:101B3800D26811437A6812680B4393607B681B680C
:101B4800DB6823F0FF017B685A697B689B691A434D
:101B58007B681B680A43DA607B681B681A687B68C5
:101B68001B6842F001021A607B6800221A647B68D5
:101B7800202283F83D207B6800221A637B680022BC
:101B880083F83E20002318461037BD4680BD00BFAD
:101B9800A08601007F841E00FF083D0083DE1B43F2
:101BA800D34D621080B588B002AFF8607A601A46EB
:101BB8000B467B8113463B81FFF788FB7861FB6806
:101BC80093F83D30DBB2202B40F0E0807B69009336
:101BD800192301227049F86800F064F90346002BC4
:101BE80001D00223D3E0FB6893F83C30012B01D1EC
:101BF8000223CCE0FB68012283F83C20FB681B68C9
:101C08001B6803F00103012B07D0FB681B681A68E7
:101C1800FB681B6842F001021A60FB681B681A68BF
:101C2800FB681B6822F400621A60FB68212283F8B3
:101C38003D20FB68102283F83E20FB6800221A64CE
:101C4800FB687A685A62FB683A895A85FB685B8D3B
:101C58009AB2FB681A85FB68504ADA6279897B690F
:101C68003A6AF86800F09CF80346002B01D001237B
:101C78008DE000233B61FB681B685B693B61FB6887
:101C88001B689B693B613B6966E07A69396AF86859
:101C980000F022FA0346002B0DD0FB681B6C042BC6
:101CA80007D1FB681B681A68FB681B6842F400725E
:101CB8001A6001236BE0FB685B6A1A78FB681B6893
:101CC8001A61FB685B6A5A1CFB685A62FB685B8D89
:101CD8009BB2013B9AB2FB685A85FB681B8D013B9E
:101CE8009AB2FB681A85FB681B685B6903F00403FA
:101CF800042B1BD1FB681B8D002B17D0FB685B6A7C
:101D08001A78FB681B681A61FB685B6A5A1CFB68D7
:101D18005A62FB685B8D9BB2013B9AB2FB685A859D
:101D2800FB681B8D013B9AB2FB681A857A69396A90
:101D3800F86800F019FA0346002B0DD0FB681B6CFD
:101D4800042B07D1FB681B681A68FB681B6842F400
:101D580000721A6001231AE0FB681B8D002B94D1D6
:101D6800FB681B681A68FB681B6842F400721A60FB
:101D7800FB68202283F83D20FB68002283F83E2080
:101D8800FB68002283F83C20002300E00223184669
:101D98001837BD4680BD00BF020010000000FFFFDD
:101DA80080B588B002AFF8607A603B600B467B81F3
:101DB800FB68DB6A7B617B69082B06D07B69012B9A
:101DC80003D07B6913F5803F08D1FB681B681A684C
:101DD800FB681B6842F480721A600BE0FB681B6B9F
:101DE800122B07D1FB681B681A68FB681B6842F452
:101DF80080721A603B6800937B6800224FF00111E3
:101E0800F86800F04FF80346002B0DD0FB681B68FC
:101E18001B6803F48073B3F5807F03D1FB684FF42C
:101E280000721A64032335E0FB681B69B3F5804F21
:101E380008D17B89DBB21A46FB681B6802F0FE02F8
:101E48001A611BE07B89DB11DBB203F00603DBB20E
:101E580063F00F03DAB2FB681B681A613B687A68A3
:101E68000E49F86800F098F80346002B01D00123CA
:101E780010E07B89DAB2FB681B681A613B687A68F4
:101E88000749F86800F088F80346002B01D00123C1
:101E980000E0002318461837BD4680BD0800010041
:101EA8000200010080B584B000AFF860B9603B6003
:101EB8001346FB7148E03B68B3F1FF3F44D0FFF79E
:101EC80005FA0246BB69D31A3A689A4202D33B68BC
:101ED800002B39D1BB681B0CDBB2012B0DD1FB6881
:101EE8001B685B69DA43BB6813409BB2002B0CBFCD
:101EF80001230023DBB21A460CE0FB681B689B69D0
:101F0800DA43BB6813409BB2002B0CBF01230023AC
:101F1800DBB21A46FB799A4216D1FB6800221A6393
:101F2800FB68202283F83D20FB68002283F83E20CE
:101F3800FB681B6C43F02002FB681A64FB680022F4
:101F480083F83C20012323E0BB681B0CDBB2012B88
:101F58000DD1FB681B685B69DA43BB6813409BB211
:101F6800002B0CBF01230023DBB21A460CE0FB68F0
:101F78001B689B69DA43BB6813409BB2002B0CBFFC
:101F880001230023DBB21A46FB799A4293D000233F
:101F980018461037BD4680BD80B584B000AFF860E4
:101FA800B9607A603B6071E0FB681B685B6903F4A9
:101FB8008063B3F5806F23D1FB681B681A68FB68E0
:101FC8001B6842F400721A60FB681B686FF4806239
:101FD8005A61FB6800221A63FB68202283F83D20BF
:101FE800FB68002283F83E20FB681B6C43F0040268
:101FF800FB681A64FB68002283F83C20012367E031
:102008007B68B3F1FF3F41D0FFF760F902463B68B8
:10201800D31A7A689A4202D37B68002B36D1BB6800
:102028001B0CDBB2012B0CD1FB681B685B69DA4324
:10203800BB6813409BB2002B14BF01230023DBB203
:102048000BE0FB681B689B69DA43BB6813409BB2D3
:10205800002B14BF01230023DBB2002B16D0FB6832
:1020680000221A63FB68202283F83D20FB680022C7
:1020780083F83E20FB681B6C43F02002FB681A645F
:10208800FB68002283F83C20012321E0BB681B0C7D
:10209800DBB2012B0CD1FB681B685B69DA43BB68B8
:1020A80013409BB2002B14BF01230023DBB20BE0CB
:1020B800FB681B689B69DA43BB6813409BB2002B23
:1020C80014BF01230023DBB2002B7FF46DAF002384
:1020D80018461037BD4680BD80B584B000AFF860A3
:1020E800B9607A6034E0F86800F086F80346002B9F
:1020F80001D0012334E0BB68B3F1FF3F28D0FFF7DC
:10210800E5F802467B68D31ABA689A4202D3BB68DC
:10211800002B1DD1FB681B685B6903F08003802BD3
:1021280016D0FB6800221A63FB68202283F83D2042
:10213800FB68002283F83E20FB681B6C43F02002FA
:10214800FB681A64FB68002283F83C20012307E03F
:10215800FB681B685B6903F08003802BC3D10023F5
:1021680018461037BD4680BD80B584B000AFF86012
:10217800B9607A6034E0F86800F03EF80346002B56
:1021880001D0012334E0BB68B3F1FF3F28D0FFF74B
:102198009DF802467B68D31ABA689A4202D3BB6894
:1021A800002B1DD1FB681B685B6903F00403042B3B
:1021B80016D0FB6800221A63FB68202283F83D20B2
:1021C800FB68002283F83E20FB681B6C43F020026A
:1021D800FB681A64FB68002283F83C20012307E0AF
:1021E800FB681B685B6903F00403042BC3D100235D
:1021F80018461037BD4680BD80B483B000AF786004
:102208007B681B685B6903F48063B3F5806F1BD13F
:102218007B681B686FF480625A617B6800221A63CE
:102228007B68202283F83D207B68002283F83E20CB
:102238007B681B6C43F004027B681A647B6800228D
:1022480083F83C20012300E0002318460C37BD46E4
:102258005DF8047B7047000080B586B000AF7860F9
:102268007B68002B01D1012367E27B681B6803F0C0
:102278000103002B75D0884B9B6803F00C03042BDB
:102288000CD0854B9B6803F00C03082B12D1824BB2
:102298005B6803F48003B3F5800F0BD17E4B1B689A
:1022A80003F40033002B5BD07B685B68002B57D1AD
:1022B800012342E27B685B68B3F5803F06D1764B29
:1022C8001B68754A43F4803313601DE07B685B68C4
:1022D800B3F5A02F0CD1704B1B686F4A43F48023D1
:1022E80013606D4B1B686C4A43F4803313600BE03A
:1022F800694B1B68684A23F480331360664B1B687C
:10230800654A23F4802313607B685B68002B13D035
:10231800FEF7DCFF386108E0FEF7D8FF02463B69AC
:10232800D31A642B01D9032307E25B4B1B6803F420
:102338000033002BF0D014E0FEF7C8FF386108E046
:10234800FEF7C4FF02463B69D31A642B01D9032365
:10235800F3E1514B1B6803F40033002BF0D100E08C
:1023680000BF7B681B6803F00203002B63D04A4B55
:102378009B6803F00C03002B0BD0474B9B6803F0C2
:102388000C03082B1CD1444B5B6803F48003002B1F
:1023980016D1414B1B6803F00203002B05D07B6864
:1023A800DB68012B01D00123C7E13B4B1B6823F0FD
:1023B800F8027B681B69DB00374913430B603AE07E
:1023C8007B68DB68002B20D0344B01221A60FEF7B3
:1023D8007DFF386108E0FEF779FF02463B69D31AB2
:1023E800022B01D90323A8E12B4B1B6803F002033E
:1023F800002BF0D0284B1B6823F0F8027B681B6980
:10240800DB00254913430B6015E0244B00221A60BA
:10241800FEF75CFF386108E0FEF758FF02463B69AB
:10242800D31A022B01D9032387E11B4B1B6803F046
:102438000203002BF0D17B681B6803F00803002B14
:1024480036D07B685B69002B16D0154B01221A60C9
:10245800FEF73CFF386108E0FEF738FF02463B69AB
:10246800D31A022B01D9032367E10B4B5B6F03F0EF
:102478000203002BF0D01BE0094B00221A60FEF784
:1024880025FF38610EE0FEF721FF02463B69D31AAB
:10249800022B07D9032350E10038024000004742CD
:1024A800800E4742884B5B6F03F00203002BEAD192
:1024B8007B681B6803F00403002B00F0978000235F
:1024C800FB75814B1B6C03F08053002B0FD100234D
:1024D800BB607D4B1B6C7C4A43F0805313647A4B82
:1024E8001B6C03F08053BB60BB680123FB75774B03
:1024F8001B6803F48073002B18D1744B1B68734A54
:1025080043F480731360FEF7E1FE386108E0FEF7DC
:10251800DDFE02463B69D31A022B01D903230CE1E5
:102528006A4B1B6803F48073002BF0D07B689B68B0
:10253800012B06D1644B1B6F634A43F001031367F9
:102548001CE07B689B68052B0CD15F4B1B6F5E4AB8
:1025580043F0040313675C4B1B6F5B4A43F00103B2
:1025680013670BE0584B1B6F574A23F0010313679F
:10257800554B1B6F544A23F0040313677B689B6811
:10258800002B15D0FEF7A2FE38610AE0FEF79EFE8A
:1025980002463B69D31A41F28832934201D9032398
:1025A800CBE0494B1B6F03F00203002BEED014E085
:1025B800FEF78CFE38610AE0FEF788FE02463B69AA
:1025C800D31A41F28832934201D90323B5E03E4B36
:1025D8001B6F03F00203002BEED1FB7D012B05D10D
:1025E800394B1B6C384A23F0805313647B689B6912
:1025F800002B00F0A180344B9B6803F00C03082BE0
:102608005CD07B689B69022B41D1314B00221A6058
:10261800FEF75CFE386108E0FEF758FE02463B69AB
:10262800D31A022B01D9032387E0274B1B6803F039
:102638000073002BF0D17B68DA697B681B6A1A4348
:102648007B685B6A9B011A437B689B6A5B08013B5A
:102658001B041A437B68DB6A1B061B4913434B6048
:102668001B4B01221A60FEF731FE386108E0FEF7C5
:102678002DFE02463B69D31A022B01D903235CE0E5
:10268800114B1B6803F00073002BF0D054E0104B83
:1026980000221A60FEF71AFE386108E0FEF716FEFF
:1026A80002463B69D31A022B01D9032345E0064BA6
:1026B8001B6803F00073002BF0D13DE07B689B6939
:1026C800012B07D1012338E0003802400070004098
:1026D800600047421B4B5B68FB607B689B69012B72
:1026E80028D0FB6803F480027B68DB699A4221D119
:1026F800FB6803F03F027B681B6A9A421AD1FA68AA
:1027080047F6C07313407A68526A9201934211D116
:10271800FB6803F440327B689B6A5B08013B1B043F
:102728009A4207D1FB6803F070627B68DB6A1B067C
:102738009A4201D0012300E0002318461837BD460D
:1027480080BD00BF0038024080B584B000AF78601B
:1027580039607B68002B01D10123CCE0684B1B68F2
:1027680003F007033A689A420CD9654B3A68D2B22B
:102778001A70634B1B6803F007033A689A4201D04A
:102788000123B8E07B681B6803F00203002B20D00C
:102798007B681B6803F00403002B05D0594B9B682A
:1027A800584A43F4E05393607B681B6803F00803BE
:1027B800002B05D0534B9B68524A43F46043936007
:1027C800504B9B6823F0F0027B689B684D4913438C
:1027D8008B607B681B6803F00103002B44D07B6887
:1027E8005B68012B07D1474B1B6803F40033002BB0
:1027F80019D101237FE07B685B68022B03D07B68DB
:102808005B68032B07D13F4B1B6803F00073002B59
:1028180009D101236FE03B4B1B6803F00203002B37
:1028280001D1012367E0374B9B6823F003027B68E3
:102838005B68344913438B60FEF748FDF8600AE093
:10284800FEF744FD0246FB68D31A41F288329342F0
:1028580001D903234FE02B4B9B6803F00C027B68E4
:102868005B689B009A42EBD1254B1B6803F007037A
:102878003A689A420CD2224B3A68D2B21A70204B6C
:102888001B6803F007033A689A4201D0012332E03B
:102898007B681B6803F00403002B08D0194B9B6866
:1028A80023F4E0527B68DB68164913438B607B682E
:1028B8001B6803F00803002B09D0124B9B6823F414
:1028C80060427B681B69DB000E4913438B6000F094
:1028D80021F802460B4B9B681B0903F00F030A49BA
:1028E800CB5C22FA03F3094A1360094B1B681846AC
:1028F800FEF7A8FC002318461037BD4680BD00BF70
:10290800003C0240003802402C3B00081000002028
:10291800140000202DE9B04F94B000AF00237B6471
:102928000023FB6400233B640023BB64794B9B6852
:1029380003F00C03082B0DD0082B00F2E180002BCC
:1029480002D0042B03D0DBE0734BBB64DBE0734B9A
:10295800BB64D8E06F4B5B6803F03F037B646D4B4F
:102968005B6803F48003002B63D06A4B5B689B09A8
:102978000022BB63FA63BB6BC3F308033B6300230A
:102988007B63D7E90C4522462B464FF000004FF0F9
:102998000001590141EAD261500102460B46214625
:1029A800511A3961294663EB01037B614FF000023C
:1029B8004FF00003D7E904AB59468B01514643EA6F
:1029C800916351468A015146B2EB0108594663EBBF
:1029D80001094FF000024FF000034FEAC90343EA30
:1029E80058734FEAC80290469946234618EB0303EA
:1029F800BB602B4649EB0303FB604FF000024FF02E
:102A08000003D7E9024529464B02214643EAD15340
:102A180021464A02104619467B6C0022BB62FA62C4
:102A2800D7E90A23FDF7CCFB02460B461346FB64A5
:102A380058E0384B5B689B09002218461146C0F3E2
:102A480008033B6200237B62D7E9088942464B466C
:102A58004FF000004FF00001590141EAD2615001E6
:102A680002460B464146B2EB010A494663EB010BAD
:102A78004FF000024FF000034FEA8B1343EA9A63CA
:102A88004FEA8A12B2EB0A0463EB0B054FF000021F
:102A98004FF00003EB0043EA5473E20014461D466E
:102AA8004346E3183B604B4645EB03037B604FF01E
:102AB80000024FF00003D7E9004529468B02214662
:102AC80043EA915321468A02104619467B6C00223C
:102AD800BB61FA61D7E90623FDF772FB02460B4694
:102AE8001346FB640B4B5B681B0C03F003030133B9
:102AF8005B003B64FA6C3B6CB2FBF3F3BB6402E033
:102B0800054BBB6400BFBB6C18465037BD46BDE8DB
:102B1800B08F00BF003802400024F40000127A0091
:102B280080B400AF034B1B681846BD465DF8047BB4
:102B3800704700BF1000002080B500AFFFF7F0FF1E
:102B48000246054B9B689B0A03F007030349CB5CCD
:102B580022FA03F3184680BD003802403C3B0008C7
:102B680080B582B000AF78607B68002B01D101236B
:102B780041E07B6893F83D30DBB2002B06D17B68DF
:102B8800002283F83C207868FEF75EFA7B68022210
:102B980083F83D207B681A687B6804331946104621
:102BA80000F048FB7B68012283F846207B680122FD
:102BB80083F83E207B68012283F83F207B6801224E
:102BC80083F840207B68012283F841207B6801223A
:102BD80083F842207B68012283F843207B68012226
:102BE80083F844207B68012283F845207B68012212
:102BF80083F83D20002318460837BD4680BD80B5C0
:102C080082B000AF78607B68002B01D1012341E0DE
:102C18007B6893F83D30DBB2002B06D17B6800223D
:102C280083F83C20786800F039F87B68022283F842
:102C38003D207B681A687B6804331946104600F00B
:102C4800F9FA7B68012283F846207B68012283F821
:102C58003E207B68012283F83F207B68012283F8AD
:102C680040207B68012283F841207B68012283F899
:102C780042207B68012283F843207B68012283F885
:102C880044207B68012283F845207B68012283F871
:102C98003D20002318460837BD4680BD80B483B068
:102CA80000AF786000BF0C37BD465DF8047B704705
:102CB80080B584B000AF786039603B68002B09D1DB
:102CC8007B6893F83E30DBB2012B14BF012300234D
:102CD800DBB222E03B68042B09D17B6893F83F30D4
:102CE800DBB2012B14BF01230023DBB215E03B68E4
:102CF800082B09D17B6893F84030DBB2012B14BF55
:102D080001230023DBB208E07B6893F84130DBB293
:102D1800012B14BF01230023DBB2002B01D00123B8
:102D28007CE03B68002B04D17B68022283F83E20BC
:102D380013E03B68042B04D17B68022283F83F2010
:102D48000BE03B68082B04D17B68022283F8402003
:102D580003E07B68022283F841207B681B6801221C
:102D68003968184600F056FD7B681B682D4A934267
:102D780004D07B681B682C4A934201D1012300E0F0
:102D88000023002B07D07B681B685A6C7B681B6884
:102D980042F400425A647B681B68224A934222D05C
:102DA8007B681B68B3F1804F1DD07B681B681F4A86
:102DB800934218D07B681B681D4A934213D07B68E6
:102DC8001B681C4A93420ED07B681B68164A9342C4
:102DD80009D07B681B68184A934204D07B681B683B
:102DE800164A934211D17B681B689B6803F007035E
:102DF800FB60FB68062B10D07B681B681A687B6831
:102E08001B6842F001021A6007E07B681B681A68B9
:102E18007B681B6842F001021A60002318461037CD
:102E2800BD4680BD00000140000401400004004090
:102E380000080040000C004000400140001800401D
:102E480080B582B000AF786039607B681B6800226B
:102E58003968184600F0DEFC7B681B682E4A9342EE
:102E680004D07B681B682D4A934201D1012300E0FE
:102E78000023002B17D07B681B681A6A41F21113D4
:102E88001340002B0FD17B681B681A6A40F2444339
:102E98001340002B07D17B681B685A6C7B681B6842
:102EA80022F400425A647B681B681A6A41F21113C3
:102EB8001340002B0FD17B681B681A6A40F2444309
:102EC8001340002B07D17B681B681A687B681B6856
:102ED80022F001021A603B68002B04D17B680122B2
:102EE80083F83E2013E03B68042B04D17B68012261
:102EF80083F83F200BE03B68082B04D17B68012254
:102F080083F8402003E07B68012283F841200023F6
:102F180018460837BD4680BD000001400004014046
:102F280080B586B000AFF860B9607A600023FB75A1
:102F3800FB6893F83C30012B01D10223AEE0FB681B
:102F4800012283F83C207B680C2B00F29F8001A2B1
:102F580052F823F0912F00089530000895300008AA
:102F680095300008D12F00089530000895300008EA
:102F78009530000813300008953000089530000897
:102F88009530000853300008FB681B68B96818467C
:102F980000F0F6F9FB681B689A69FB681B6842F049
:102FA80008029A61FB681B689A69FB681B6822F033
:102FB80004029A61FB681B689969BB681A69FB6817
:102FC8001B680A439A6164E0FB681B68B968184685
:102FD80000F046FAFB681B689A69FB681B6842F4B4
:102FE80000629A61FB681B689A69FB681B6822F497
:102FF80080629A61FB681B689969BB681B691A0241
:10300800FB681B680A439A6143E0FB681B68B96860
:10301800184600F09BFAFB681B68DA69FB681B68B6
:1030280042F00802DA61FB681B68DA69FB681B6812
:1030380022F00402DA61FB681B68D969BB681A6967
:10304800FB681B680A43DA6123E0FB681B68B96800
:10305800184600F0EFFAFB681B68DA69FB681B6822
:1030680042F40062DA61FB681B68DA69FB681B6876
:1030780022F48062DA61FB681B68D969BB681B6946
:103088001A02FB681B680A43DA6102E00123FB7538
:1030980000BFFB68002283F83C20FB7D18461837E8
:1030A800BD4680BD80B584B000AF7860396000232C
:1030B800FB737B6893F83C30012B01D10223B4E009
:1030C8007B68012283F83C207B68022283F83D203C
:1030D8007B681B689B68BB60BB6823F07703BB6099
:1030E800BB6823F47F43BB607B681B68BA689A603F
:1030F8003B681B68B3F5005F3ED0B3F5005F00F294
:103108008780B3F5805F00F08680B3F5805F7FD855
:10311800702B1AD0702B7BD8602B50D0602B77D8AF
:10312800502B3CD0502B73D8402B58D0402B6FD805
:10313800302B64D0302B6BD8202B60D0202B67D855
:10314800002B5CD0102B5AD062E07B6818683B6873
:1031580099683B685A683B68DB6800F03BFB7B6812
:103168001B689B68BB60BB6843F07703BB607B68E8
:103178001B68BA689A604FE07B6818683B68996872
:103188003B685A683B68DB6800F024FB7B681B6877
:103198009A687B681B6842F480429A603CE07B68CE
:1031A80018683B6859683B68DB681A4600F098FA6B
:1031B8007B681B685021184600F0F1FA2CE07B6808
:1031C80018683B6859683B68DB681A4600F0B7FA2C
:1031D8007B681B686021184600F0E1FA1CE07B68F8
:1031E80018683B6859683B68DB681A4600F078FA4B
:1031F8007B681B684021184600F0D1FA0CE07B6818
:103208001A683B681B681946104600F0C8FA03E0C4
:103218000123FB7300E000BF7B68012283F83D2097
:103228007B68002283F83C20FB7B18461037BD469C
:1032380080BD000080B485B000AF786039607B68DD
:103248001B68FB607B68434A934213D07B68B3F1E9
:10325800804F0FD07B68404A93420BD07B683F4A2F
:10326800934207D07B683E4A934203D07B683D4A2D
:10327800934208D1FB6823F07003FB603B685B68EE
:10328800FA681343FB607B68324A93422BD07B6811
:10329800B3F1804F27D07B682F4A934223D07B68B5
:1032A8002E4A93421FD07B682D4A93421BD07B68DD
:1032B8002C4A934217D07B682B4A934213D07B68E1
:1032C8002A4A93420FD07B68294A93420BD07B68E5
:1032D800284A934207D07B68274A934203D07B68E9
:1032E800264A934208D1FB6823F44073FB603B688D
:1032F800DB68FA681343FB60FB6823F080023B68D5
:103308005B691343FB603B689A687B68DA623B68D9
:103318001A687B689A627B680E4A934203D07B687E
:10332800104A934203D13B681A697B681A637B6829
:103338001B6843F004027B681A607B6801225A61AB
:103348007B68FA681A6000BF1437BD465DF8047BD5
:10335800704700BF00000140000400400008004022
:10336800000C0040000401400040014000440140BE
:103378000048014000180040001C004000200040A8
:1033880080B487B000AF786039607B681B6A7B6166
:103398007B681B6A23F001027B681A627B685B68A2
:1033A8003B617B689B69FB60FB6823F07003FB60F3
:1033B800FB6823F00303FB603B681B68FA68134350
:1033C800FB607B6923F002037B613B689B687A6939
:1033D80013437B617B68204A934203D07B681F4A72
:1033E80093420CD17B6923F008037B613B68DB685F
:1033F8007A6913437B617B6923F004037B617B68F3
:10340800154A934203D07B68144A934211D13B6911
:1034180023F480733B613B6923F400733B613B6891
:103428005B693A6913433B613B689B693A6913439B
:103438003B617B683A695A607B68FA689A613B68C5
:103448005A687B685A637B687A691A6200BF1C37BE
:10345800BD465DF8047B7047000001400004014050
:1034680080B487B000AF786039607B681B6A7B6185
:103478007B681B6A23F010027B681A627B685B68B2
:103488003B617B689B69FB60FB6823F4E043FB605E
:10349800FB6823F44073FB603B681B681B02FA68F7
:1034A8001343FB607B6923F020037B613B689B68C7
:1034B8001B017A6913437B617B68224A934203D0DC
:1034C8007B68214A93420DD17B6923F080037B619D
:1034D8003B68DB681B017A6913437B617B6923F0D6
:1034E80040037B617B68174A934203D07B68164A86
:1034F800934213D13B6923F480633B613B6923F416
:1035080000633B613B685B699B003A6913433B611D
:103518003B689B699B003A6913433B617B683A6946
:103528005A607B68FA689A613B685A687B689A6354
:103538007B687A691A6200BF1C37BD465DF8047B58
:10354800704700BF000001400004014080B487B00C
:1035580000AF786039607B681B6A7B617B681B6A97
:1035680023F480727B681A627B685B683B617B68C6
:10357800DB69FB60FB6823F07003FB60FB6823F0EA
:103588000303FB603B681B68FA681343FB607B69B5
:1035980023F400737B613B689B681B027A691343C1
:1035A8007B617B68214A934203D07B68204A93421F
:1035B8000DD17B6923F400637B613B68DB681B02E8
:1035C8007A6913437B617B6923F480637B617B6841
:1035D800164A934203D07B68154A934213D13B693C
:1035E80023F480533B613B6923F400533B613B6800
:1035F8005B691B013A6913433B613B689B691B018B
:103608003A6913433B617B683A695A607B68FA6898
:10361800DA613B685A687B68DA637B687A691A62A0
:1036280000BF1C37BD465DF8047B704700000140B1
:103638000004014080B487B000AF786039607B68CF
:103648001B6A3B617B681B6A23F480527B681A62A1
:103658007B685B687B617B68DB69FB60FB6823F4E4
:10366800E043FB60FB6823F44073FB603B681B6826
:103678001B02FA681343FB603B6923F400533B6168
:103688003B689B681B033A6913433B617B68124A9A
:10369800934203D07B68114A934209D17B6923F492
:1036A80080437B613B685B699B017A6913437B615B
:1036B8007B687A695A607B68FA68DA613B685A689D
:1036C8007B681A647B683A691A6200BF1C37BD467A
:1036D8005DF8047B704700BF000001400004014012
:1036E80080B487B000AFF860B9607A60FB681B6A85
:1036F8007B61FB681B6A23F00102FB681A62FB68A6
:103708009B693B613B6923F0F0033B617B681B01CC
:103718003A6913433B617B6923F00A037B617A6949
:10372800BB6813437B61FB683A699A61FB687A69F5
:103738001A6200BF1C37BD465DF8047B704780B431
:1037480087B000AFF860B9607A60FB681B6A7B617C
:10375800FB681B6A23F01002FB681A62FB689B690E
:103768003B613B6923F470433B617B681B033A6907
:1037780013433B617B6923F0A0037B61BB681B019A
:103788007A6913437B61FB683A699A61FB687A69D5
:103798001A6200BF1C37BD465DF8047B704780B4D1
:1037A80085B000AF786039607B689B68FB60FB6818
:1037B80023F07003FB603A68FB68134343F0070388
:1037C800FB607B68FA689A6000BF1437BD465DF8F5
:1037D800047B704780B487B000AFF860B9607A6046
:1037E8003B60FB689B687B617B6923F47F437B615B
:1037F8003B681A027B681A43BB6813437A69134310
:103808007B61FB687A699A6000BF1C37BD465DF82A
:10381800047B704780B487B000AFF860B9607A6005
:10382800BB6803F01F03012202FA03F37B61FB6804
:103838001A6A7B69DB431A40FB681A62FB681A6ADA
:10384800BB6803F01F03796801FA03F31A43FB68A6
:103858001A6200BF1C37BD465DF8047B7047000044
:1038680080B485B000AF786039607B6893F83C30ED
:10387800012B01D102235AE07B68012283F83C2006
:103888007B68022283F83D207B681B685B68FB60CD
:103898007B681B689B68BB60FB6823F07003FB6058
:1038A8003B681B68FA681343FB607B681B68FA680F
:1038B8005A607B681B68214A934222D07B681B6848
:1038C800B3F1804F1DD07B681B681D4A934218D006
:1038D8007B681B681B4A934213D07B681B681A4A93
:1038E80093420ED07B681B68184A934209D07B68C4
:1038F8001B68174A934204D07B681B68154A934299
:103908000CD1BB6823F08003BB603B685B68BA6876
:103918001343BB607B681B68BA689A607B680122A6
:1039280083F83D207B68002283F83C20002318465A
:103938001437BD465DF8047B704700BF00000140A6
:103948000004004000080040000C00400004014052
:10395800004001400018004080B485B000AF786096
:1039680039600023FB607B6893F83C30012B01D160
:1039780002233DE07B68012283F83C20FB6823F0AA
:10398800FF023B68DB681343FB60FB6823F440726B
:103998003B689B681343FB60FB6823F480623B68C9
:1039A8005B681343FB60FB6823F400623B681B6899
:1039B8001343FB60FB6823F480523B681B69134385
:1039C800FB60FB6823F400523B685B691343FB60B0
:1039D800FB6823F480423B68DB691343FB607B6828
:1039E8001B68FA685A647B68002283F83C2000232D
:1039F80018461437BD465DF8047B704702440346F9
:103A0800934200D1704703F8011BF9E770B50D4DDB
:103A18000D4C641BA4100026A64209D10B4D0C4C7A
:103A280000F018F8641BA4100026A64205D170BD4A
:103A380055F8043B98470136EEE755F8043B98479C
:103A48000136F2E74C3B00084C3B00084C3B0008B1
:103A5800503B0008F8B500BFF8BC08BC9E4670474C
:0C3A6800F8B500BFF8BC08BC9E467047D3
:103A7400000000004000000014000000540000009A
:103A840053595354454D00004F4E00004F464600D5
:103A94004D6F6465206A6F75722061637469766521
:103AA400000000004C756D6965726520666F727464
:103AB400650000004D6F6465206E75697420616354
:103AC40074697665000000004C756D696572652047
:103AD400666169626C650000536F6C2073656320D6
:103AE4002D000000506F6D70652061637469766508
:103AF40000000000536F6C2068756D6964650000F8
:103B0400506173206427616374696F6E0000000064
:103B14004170707579657220737572006C652062EE
:103B24007574746F6E000000000000000000000057
:103B3400010203040607080900000000010203044F
:083B4400B4C6FF7F0100000080
:043B4C00AD010008BF
:043B500089010008DF
:103B540000191B060C1B1300181806090809060097
:0C3B64000024F40010000000010000002C
:04000005080011B529
:00000001FF
