:020000040800F2
:1000000000000220410F0008950E00089D0E000818
:10001000A50E0008AD0E0008B50E00080000000097
:10002000000000000000000000000000BD0E0008FD
:10003000CB0E000800000000D90E0008E70E0008F3
:10004000910F0008910F0008910F0008910F000810
:10005000910F0008910F0008F30E0008010F00082F
:10006000910F0008910F0008910F0008910F0008F0
:10007000910F0008910F0008910F0008910F0008E0
:10008000910F0008910F0008910F0008910F0008D0
:10009000910F0008910F0008910F00080F0F000842
:1000A000910F0008910F0008910F0008910F0008B0
:1000B000910F0008910F0008910F0008910F0008A0
:1000C000910F0008910F0008910F0008910F000890
:1000D000910F0008910F0008910F0008910F000880
:1000E000910F0008910F0008910F0008910F000870
:1000F000910F0008910F0008910F0008910F000860
:10010000910F0008910F0008910F0008910F00084F
:10011000910F0008910F0008910F0008910F00083F
:10012000910F0008910F0008910F0008910F00082F
:10013000910F0008910F0008910F0008910F00081F
:10014000910F0008910F0008910F0008910F00080F
:10015000910F0008910F0008910F0008910F0008FF
:10016000910F0008910F0008910F0008910F0008EF
:10017000910F0008910F0008910F00080000000087
:08018000910F0008910F000827
:1001880010B5054C237833B9044B13B10448AFF3C9
:1001980000800123237010BD1C0000200000000017
:1001A8004C29000808B5034B1BB103490348AFF3BA
:1001B800008008BD00000000200000204C29000835
:1001C80053B94AB9002908BF00281CBF4FF0FF31B6
:1001D8004FF0FF3000F088B9ADF1080C6DE904CE9E
:1001E80000F006F8DDF804E0DDE9022304B070470A
:1001F8002DE9F047089D8E4604468846002B4AD1D3
:100208008A42174662D9B2FA82F64EB1C6F1200385
:1002180001FA06F820FA03F3B74043EA0808B440A5
:100228004FEA174E1FFA87FCB8FBFEF1230C0EFBB2
:10023800118843EA084301FB0CF29A4209D9FB18DA
:1002480001F1FF3080F0EA809A4240F2E7800239FB
:100258003B449A1AA3B2B2FBFEF00EFB102243EA0B
:10026800024300FB0CFC9C4509D9FB1800F1FF3246
:1002780080F0D6809C4540F2D3803B44023840EA67
:100288000140A3EB0C0300211DB1F3400022C5E996
:100298000032BDE8F0878B4205D90DB1C5E90001F0
:1002A80000210846F5E7B3FA83F1002946D17345E2
:1002B80002D3824200F20581841A6EEB0302012008
:1002C8009046002DE5D0C5E90048E2E7002A00F095
:1002D8009080B2FA82F6002E40F0A4808A1A030CAD
:1002E8004FEA174E80B2BCB20121B2FBFEFC0EFBF6
:1002F8001C2243EA024304FB0CF29A4207D9FB187A
:100308000CF1FF3802D29A4200F2E080C4469B1AF0
:10031800B3FBFEF20EFB123340EA034302FB04F484
:100328009C4207D9FB1802F1FF3002D29C4200F22E
:10033800CA8002461B1B42EA0C40A5E7C1F1200611
:100348008B4022FA06F71F430EFA01F420FA06F34F
:100358002EFA06FE4FEA1749234300FA01F81FFA5E
:1003680087FCBEFBF9F01C0C09FB10EE44EA0E44B6
:1003780000FB0CFEA64502FA01F209D93C1900F16E
:10038800FF3A80F09C80A64540F2998002383C44B0
:10039800A4EB0E041FFA83FEB4FBF9F309FB134424
:1003A8004EEA044403FB0CFCA44508D93C1903F1AC
:1003B800FF3E80F08280A4457FD9023B3C4443EA5B
:1003C8000040A4EB0C04A0FB02EC64457346E14634
:1003D80062D35FD05DB1B8EB030264EB090404FAA1
:1003E80006F622FA01F31E43CC40C5E90064002159
:1003F8004FE7B1FBF2FC010C41EA0E4180B240EA42
:1004080001423B4638463C46B846BE462026B1FB2C
:10041800F7F1A2EB080241EA0C4166E7014618E74A
:1004280010462CE7C6F120022EFA02F3B740B1407D
:1004380020FA02F24FEA174E0A43B3FBFEF8BCB2A9
:100448000EFB1833110C41EA034108FB04F9B040D4
:1004580089454FEA104380B23ED9791808F1FF3C2C
:1004680001D289451FD8A1EB0901B1FBFEF909FBAF
:1004780004F80EFB191192B242EA0142424529D210
:10048800BA1809F1FF31C4D24245C2D2A9F102011A
:100498003A44BEE7F0459DD2BEEB02036CEB070C75
:1004A8000138E14696E7A7EB09094944A8F1020C8F
:1004B800B1FBFEF909FB04F8DBE773467FE750461A
:1004C80066E70846FDE63B44023A33E7ACF1020C26
:1004D8003B441CE749469CE7A1EB0901C446B1FB34
:1004E800FEF909FB04F8C4E7704700BF80B582B085
:1004F80000AF0346FB71384AFB791370374B08226B
:100508001A70374B00221A70334B1B78012B07D90E
:10051800334B1B7843F00803DAB2314B1A7006E00C
:100528002F4B1B7843F00403DAB22D4B1A7000F0FE
:1005380087F9322000F09CFD284B1B78184600F004
:1005480045F94FF47A7000F093FD302000F02CF953
:1005580041F2941000F09EF9302000F025F941F2A4
:10056800941000F097F9302000F01EF941F2941031
:1005780000F090F9202000F017F9642000F08AF9C3
:10058800174B1B7843F02003DBB2184600F0CFF876
:10059800144B04221A7000F075F800F02BF8124B77
:1005A80002221A70104B1B7843F00403DBB2184682
:1005B80000F0BDF841F2941000F06CF90B490020EE
:1005C80000F076F80A49012000F072F800F01DF8F2
:1005D80000BF0837BD4680BD3B0000203C0000201E
:1005E80038000020390000203A00002000000020D8
:1005F8000800002080B500AF012000F098F84FF403
:10060800FA6000F047F900BF80BD80B500AF022056
:1006180000F08DF84FF4FA6000F03CF900BF80BD9F
:1006280090B587B000AF03460A46FB711346BB710D
:10063800124B07F108040FCB84E80F00104B1B780E
:10064800BA799A4203D30E4B1B78013BBB71BB7935
:100658009B0018333B4453F8103CDAB2FB7913443F
:10066800DBB25BB263F07F035BB2DBB2184600F02B
:100678005EF800BF1C37BD4690BD00BF6429000866
:100688003B00002080B500AF084B1B7843F0040303
:10069800DAB2064B1A70054B1B7843F00803DBB23D
:1006A800184600F044F800BF80BD00BF39000020A4
:1006B80080B584B000AF03463960FB71FB7903F065
:1006C8000703FB7197F90730DB005BB243F0400387
:1006D8005BB2DBB2184600F02AF80023FB6009E0A1
:1006E800FB683A6813441B78184600F02EF8FB683C
:1006F8000133FB60FB68072BF2DD00BF00BF10373A
:10070800BD4680BD80B582B000AF786006E07B68EA
:100718005A1C7A601B78184600F017F87B681B781B
:10072800002BF4D100BF00BF0837BD4680BD80B59F
:1007380082B000AF0346FB71FB790021184600F038
:1007480012F800BF0837BD4680BD80B582B000AF43
:100758000346FB71FB790121184600F004F800BF3D
:100768000837BD4680BD80B584B000AF03460A4651
:10077800FB711346BB71FB7923F00F03FB73FB7905
:100788001B01BB73FA7BBB791343DBB2184600F03D
:100798000BF8BA7BBB791343DBB2184600F004F8B8
:1007A80000BF1037BD4680BD80B582B000AF03469C
:1007B800FB71FB79184600F009F8FB79184600F040
:1007C80021F800BF0837BD4680BD000080B586B05F
:1007D80002AF0346FB71094B1A78FB791343DBB26E
:1007E800FB7307F10F020A23009301234E210448EB
:1007F80001F09EF800BF1037BD4680BD3C000020C8
:100808004000002080B582B000AF0346FB71FB7941
:1008180043F00403DBB21846FFF7D8FF142000F0BA
:1008280039F8FB7923F00403DBB21846FFF7CEFF53
:10083800142000F02FF800BF0837BD4680BD000027
:1008480080B400AF114BDB68104A23F08073D3608B
:100858000E4BDB680D4A43F08073D3600C4B1B686A
:100868000B4A23F001031360094B1B68084A43F045
:1008780001031360064B00225A6000BF00BF00BF8F
:1008880000BFBD465DF8047B704700BFF0ED00E097
:10089800001000E080B487B000AF78600E4B1B6892
:1008A8000E4AA2FB03239A0C7B6802FB03F37B61CD
:1008B8000B4B5B683B610A4B5A683B69D31AFB6078
:1008C800FB687A699A42F6D800BF00BF1C37BD465C
:1008D8005DF8047B704700BF1000002083DE1B43D7
:1008E800001000E080B584B000AF0346FB80FB88B1
:1008F800402B46D1654B1B68002B0CBF01230023FE
:10090800DBB21A46614B1A60604B1B68002B1CD087
:1009180001224FF480515E4800F094FE00224FF40B
:1009280000415B4800F08EFEFFF764FE00210020C6
:10093800FFF776FE5748FFF7E5FE01210020FFF795
:100948006FFE5548FFF7DEFE1BE000224FF4805192
:100958004F4800F077FE00224FF400414C4800F069
:1009680071FEFFF747FE00210020FFF759FE4948B6
:10097800FFF7C8FE01210020FFF752FE4748FFF7A6
:10098800C1FEFB88012B3FD1404B1B68002B3BD09D
:100998000121434800F03EFE0346FB73FB7B012B1D
:1009A80019D0404B00221A7000224FF400413848F9
:1009B80000F048FEFFF71EFE00210020FFF730FE82
:1009C8003948FFF79FFE01210020FFF729FE37482D
:1009D800FFF798FE18E0334B01221A7001224FF4FA
:1009E80000412B4800F02EFEFFF704FE00210020F6
:1009F800FFF716FE2E48FFF785FE01210020FFF7BE
:100A08000FFE2C48FFF77EFEFB88022B39D11F4BC7
:100A18001B68002B35D00221214800F0FBFD03465E
:100A2800BB73BB7B012B16D101224FF40051184830
:100A380000F008FEFFF7DEFD00210020FFF7F0FDC3
:100A48001D48FFF75FFE01210020FFF7E9FD1B4865
:100A5800FFF758FE15E000224FF400510C4800F053
:100A6800F1FDFFF7C7FD00210020FFF7D9FD14486D
:100A7800FFF748FE01210020FFF7D2FD1148FFF7DC
:100A880041FE00BF1037BD4680BD00BF9400002066
:100A9800000C0240742900087C29000880290008FD
:100AA80000000240980000208429000898290008C6
:100AB800A8290008BC290008CC290008D829000862
:100AC800E4290008F029000880B500AF00F05EFABC
:100AD80000F01EF800F0B2F800F082F80220FFF7EC
:100AE80005FDFFF787FD00210020FFF799FD064867
:100AF800FFF708FE01210020FFF792FD0348FFF7EA
:100B080001FE00BFFDE700BF002A00080C2A00080C
:100B180080B594B000AF07F12003302200211846B9
:100B280001F0E4FE07F10C0300221A605A609A6093
:100B3800DA601A610023BB60274B1B6C264A43F01E
:100B480080531364244B1B6C03F08053BB60BB6859
:100B580000237B60214B1B68204A43F480431360C9
:100B68001E4B1B6803F480437B607B6801233B6258
:100B78004FF480337B620223BB634FF48003FB6333
:100B880004233B6432237B640223BB640423FB6499
:100B980007F12003184601F025FA0346002B01D07F
:100BA80000F0FEF80F23FB6002233B6100237B610A
:100BB8004FF48053BB610023FB6107F10C03012153
:100BC800184601F087FC0346002B01D000F0E8F836
:100BD80000BF5037BD4680BD00380240007000405D
:100BE80080B500AF124B134A1A60114B124A5A6073
:100BF8000F4B00229A600E4B0022DA600C4B4FF428
:100C080080421A610A4B00225A61094B00229A61FC
:100C1800074B0022DA61064B00221A62044800F0F2
:100C280043FD0346002B01D000F0BAF800BF80BD99
:100C38004000002000540040A086010080B58AB022
:100C480000AF07F1140300221A605A609A60DA6054
:100C58001A6100233B614E4B1B6B4D4A43F08003E6
:100C680013634B4B1B6B03F080033B613B69002311
:100C7800FB60474B1B6B464A43F001031363444B2D
:100C88001B6B03F00103FB60FB680023BB60404B58
:100C98001B6B3F4A43F0080313633D4B1B6B03F088
:100CA8000803BB60BB6800237B60394B1B6B384A69
:100CB80043F004031363364B1B6B03F004037B60A0
:100CC8007B6800233B60324B1B6B314A43F00203C5
:100CD80013632F4B1B6B03F002033B603B6800223E
:100CE8004FF430412B4800F0ADFC01237B614FF4F9
:100CF8004413BB610023FB6107F11403194626481E
:100D080000F0ECFA02237B614FF44413BB6101232A
:100D1800FB6107F1140319461F4800F0DFFA4FF48E
:100D280030437B610123BB610023FB6100233B62ED
:100D380007F114031946174800F0D0FA40237B61E5
:100D48004FF48813BB610223FB6107F114031946B2
:100D5800124800F0C3FA00220021062000F087FAAA
:100D6800062000F0A0FA00220021072000F07FFAF8
:100D7800072000F098FA00220021172000F077FAE7
:100D8800172000F090FA00BF2837BD4680BD00BF8D
:100D980000380240000C02400000024000080240F7
:100DA80080B400AF72B600BF00BFFDE780B483B067
:100DB80000AF00237B60104B5B6C0F4A43F4804309
:100DC80053640D4B5B6C03F480437B607B680023AA
:100DD8003B60094B1B6C084A43F080531364064B75
:100DE8001B6C03F080533B603B6800BF0C37BD466B
:100DF8005DF8047B704700BF0038024080B58AB0B8
:100E080000AF786007F1140300221A605A609A60F4
:100E1800DA601A617B681B68194A93422BD1002358
:100E28003B61184B1B6B174A43F002031363154BC6
:100E38001B6B03F002033B613B69C0237B611223F8
:100E4800BB610023FB6103233B6204237B6207F140
:100E5800140319460C4800F041FA0023FB60094BC3
:100E68001B6C084A43F400131364064B1B6C03F411
:100E78000013FB60FB6800BF2837BD4680BD00BF7C
:100E880000540040003802400004024080B400AF23
:100E980000BFFDE780B400AF00BFFDE780B400AF3E
:100EA80000BFFDE780B400AF00BFFDE780B400AF2E
:100EB80000BFFDE780B400AF00BFBD465DF8047B0E
:100EC800704780B400AF00BFBD465DF8047B704733
:100ED80080B400AF00BFBD465DF8047B704780B5A5
:100EE80000AF00F0A5F800BF80BD80B500AF0120BD
:100EF80000F0C2FB00BF80BD80B500AF022000F04B
:100F0800BBFB00BF80BD80B500AF402000F0B4FB44
:100F180000BF80BD80B400AF064BD3F88830054AC7
:100F280043F47003C2F8883000BFBD465DF8047B07
:100F3800704700BF00ED00E0DFF834D0FFF7EAFFAC
:100F48000C480D490D4A002302E0D458C45004331C
:100F5800C4188C42F9D30A4A0A4C002301E01360F2
:100F68000432A242FBD301F0C9FCFFF7ADFD704784
:100F780000000220000000201C000020402A000879
:100F88001C000020A0000020FEE7000080B500AF94
:100F98000E4B1B680D4A43F4007313600B4B1B6820
:100FA8000A4A43F480631360084B1B68074A43F4FA
:100FB80080731360032000F04FF90F2000F008F849
:100FC800FFF7F4FE0023184680BD00BF003C024036
:100FD80080B582B000AF7860124B1A68124B1B784C
:100FE80019464FF47A73B3FBF1F3B2FBF3F31846E7
:100FF80000F067F90346002B01D001230EE07B685F
:101008000F2B0AD8002279684FF0FF3000F02FF933
:10101800064A7B681360002300E00123184608375E
:10102800BD4680BD100000201800002014000020DC
:1010380080B400AF064B1B781A46064B1B68134456
:10104800044A136000BFBD465DF8047B704700BFCB
:10105800180000209C00002080B400AF034B1B68E0
:101068001846BD465DF8047B704700BF9C00002011
:1010780080B584B000AF7860FFF7EEFFB8607B689A
:10108800FB60FB68B3F1FF3F05D00A4B1B781A469B
:10109800FB681344FB6000BFFFF7DEFF0246BB6836
:1010A800D31AFA689A42F7D800BF00BF1037BD4676
:1010B80080BD00BF1800002080B485B000AF786004
:1010C8007B6803F00703FB600C4BDB68BB60BA6806
:1010D8004FF6FF031340BB60FB681A02BB6813435B
:1010E80043F0BF6343F40033BB60044ABB68D3607A
:1010F80000BF1437BD465DF8047B704700ED00E083
:1011080080B400AF044BDB681B0A03F007031846E2
:10111800BD465DF8047B704700ED00E080B483B005
:1011280000AF0346FB7197F90730002B0BDBFB7907
:1011380003F01F02074997F907305B09012000FAFD
:1011480002F241F8232000BF0C37BD465DF8047B4E
:10115800704700BF00E100E080B483B000AF0346F1
:101168003960FB7197F90730002B0ADB3B68DAB26C
:101178000C4997F907301201D2B20B4483F80023C7
:101188000AE03B68DAB20849FB7903F00F03043B35
:101198001201D2B20B441A7600BF0C37BD465DF877
:1011A800047B704700E100E000ED00E080B489B006
:1011B80000AFF860B9607A60FB6803F00703FB6171
:1011C800FB69C3F10703042B28BF0423BB61FB6938
:1011D8000433062B02D9FB69033B00E000237B6143
:1011E8004FF0FF32BB6902FA03F3DA43BB681A40D7
:1011F8007B699A404FF0FF317B6901FA03F3D943C9
:101208007B680B40134318462437BD465DF8047BC2
:101218007047000080B582B000AF78607B68013B02
:10122800B3F1807F01D301230FE00A4A7B68013BB9
:1012380053600F214FF0FF30FFF78EFF054B002260
:101248009A60044B07221A60002318460837BD46E7
:1012580080BD00BF10E000E080B582B000AF7860CC
:101268007868FFF729FF00BF0837BD4680BD80B505
:1012780086B000AF0346B9607A60FB7300237B61D8
:10128800FFF73EFF78617A68B9687869FFF78EFFE3
:10129800024697F90F3011461846FFF75DFF00BF69
:1012A8001837BD4680BD80B582B000AF0346FB71DC
:1012B80097F907301846FFF731FF00BF0837BD46DA
:1012C80080BD80B582B000AF78607868FFF7A2FF74
:1012D800034618460837BD4680BD000080B489B073
:1012E80000AF7860396000237B6100233B610023F5
:1012F800BB610023FB616BE10122FB6902FA03F386
:101308007B613B681B687A6913403B613A697B697A
:101318009A4240F05A813B685B6803F00303012B53
:1013280005D03B685B6803F00303022B30D17B6870
:101338009B68BB61FB695B00032202FA03F3DB4392
:10134800BA691340BB613B68DA68FB695B0002FA63
:1013580003F3BA691343BB617B68BA699A607B6817
:101368005B68BB610122FB6902FA03F3DB43BA69DC
:101378001340BB613B685B681B0903F00102FB6912
:1013880002FA03F3BA691343BB617B68BA695A600E
:101398003B685B6803F00303032B17D07B68DB68AB
:1013A800BB61FB695B00032202FA03F3DB43BA6902
:1013B8001340BB613B689A68FB695B0002FA03F360
:1013C800BA691343BB617B68BA69DA603B685B68DA
:1013D80003F00303022B23D1FB69DA087B68083288
:1013E80053F82230BB61FB6903F007039B000F220F
:1013F80002FA03F3DB43BA691340BB613B681A691D
:10140800FB6903F007039B0002FA03F3BA6913436D
:10141800BB61FB69DA087B680832B96943F82210B6
:101428007B681B68BB61FB695B00032202FA03F35C
:10143800DB43BA691340BB613B685B6803F0030296
:10144800FB695B0002FA03F3BA691343BB617B686B
:10145800BA691A603B685B6803F44033002B00F0FC
:10146800B4800023FB60604B5B6C5F4A43F48043AD
:1014780053645D4B5B6C03F48043FB60FB685B4A21
:10148800FB699B08023352F82330BB61FB6903F008
:1014980003039B000F2202FA03F3DB43BA691340EC
:1014A800BB617B68524A93422BD07B68514A934276
:1014B80025D07B68504A93421FD07B684F4A93429D
:1014C80019D07B684E4A934213D07B684D4A9342A9
:1014D8000DD07B684C4A934207D07B684B4A9342B5
:1014E80001D107230EE008230CE006230AE00523B8
:1014F80008E0042306E0032304E0022302E00123BA
:1015080000E00023FA6902F0030292009340BA69EE
:101518001343BB613549FB699B080233BA6941F83B
:1015280023203B4B9B68BB613B69DB43BA69134093
:10153800BB613B685B6803F48013002B03D0BA6976
:101548003B691343BB61324ABB699360304BDB682C
:10155800BB613B69DB43BA691340BB613B685B68AD
:1015680003F40013002B03D0BA693B691343BB6132
:10157800274ABB69D360264B5B68BB613B69DB4389
:10158800BA691340BB613B685B6803F40033002B06
:1015980003D0BA693B691343BB611D4ABB695360F9
:1015A8001B4B1B68BB613B69DB43BA691340BB61DA
:1015B8003B685B6803F48033002B03D0BA693B694E
:1015C8001343BB61124ABB691360FB690133FB61BA
:1015D800FB690F2B7FF690AE00BF00BF2437BD46D6
:1015E8005DF8047B704700BF0038024000380140B6
:1015F800000002400004024000080240000C0240C3
:10160800001002400014024000180240001C024072
:10161800003C014080B485B000AF78600B467B8009
:101628007B681A697B881340002B02D00123FB7367
:1016380001E00023FB73FB7B18461437BD465DF8B9
:10164800047B704780B483B000AF78600B467B8022
:1016580013467B707B78002B03D07A887B689A616D
:1016680003E07B881A047B689A6100BF0C37BD468B
:101678005DF8047B7047000080B582B000AF034678
:10168800FB80084B5A69FB881340002B06D0054A9B
:10169800FB885361FB881846FFF724F900BF083719
:1016A800BD4680BD003C014080B584B000AF786085
:1016B8007B68002B01D101232BE17B6893F83D3037
:1016C800DBB2002B06D17B68002283F83C207868C7
:1016D800FFF794FB7B68242283F83D207B681B6816
:1016E8001A687B681B6822F001021A607B681B6815
:1016F8001A687B681B6842F400421A607B681B68A2
:101708001A687B681B6822F400421A6001F0DAF854
:10171800F8607B685B68814A934207D8FB68804A17
:10172800934294BF01230023DBB206E0FB687D4AA5
:10173800934294BF01230023DBB2002B01D0012385
:10174800E7E0FB68784AA2FB03239B0CBB607B683D
:101758001B685B6823F03F017B681B68BA680A4313
:101768005A607B681B681B6A23F03F017B685B68D3
:101778006A4A934202D8BB68013309E0BB684FF458
:10178800967202FB03F3694AA2FB03239B09013308
:101798007A6812680B4313627B681B68DB6923F461
:1017A8004F4222F0FF027B685B685C498B4219D884
:1017B800FB68591E7B685B685B00B1FBF3F3591C3F
:1017C80040F6FC730B40002B0AD0FB68591E7B685F
:1017D8005B685B00B1FBF3F30133C3F30B0351E028
:1017E80004234FE07B689B68002B11D1FB68581ECF
:1017F8007B6859680B465B000B44B0FBF3F301337D
:10180800C3F30B03002B0CBF01230023DBB212E050
:10181800FB68581E7B6859680B469B000B4499006F
:101828000B44B0FBF3F30133C3F30B03002B0CBFE2
:1018380001230023DBB2002B01D0012322E07B68C7
:101848009B68002B0ED1FB68581E7B6859680B46B5
:101858005B000B44B0FBF3F30133C3F30B0343F416
:1018680000430FE0FB68581E7B6859680B469B00D5
:101878000B4499000B44B0FBF3F30133C3F30B03A0
:1018880043F44043796809681343CB617B681B685C
:101898001B6823F0C0017B68DA697B681B6A1A43FE
:1018A8007B681B680A431A607B681B689B6823F483
:1018B800034323F0FF037A6811697A68D2681143F9
:1018C8007A6812680B4393607B681B68DB6823F0B7
:1018D800FF017B685A697B689B691A437B681B68B0
:1018E8000A43DA607B681B681A687B681B6842F0E9
:1018F80001021A607B6800221A647B68202283F840
:101908003D207B6800221A637B68002283F83E2012
:10191800002318461037BD4680BD00BFA0860100D1
:101928007F841E00FF083D0083DE1B43D34D6210F9
:1019380080B588B002AFF8607A601A460B467B81A2
:1019480013463B81FFF788FB7861FB6893F83D30CD
:10195800DBB2202B40F0E0807B6900931923012241
:101968007049F86800F064F90346002B01D002239F
:10197800D3E0FB6893F83C30012B01D10223CCE083
:10198800FB68012283F83C20FB681B681B6803F096
:101998000103012B07D0FB681B681A68FB681B68EA
:1019A80042F001021A60FB681B681A68FB681B6832
:1019B80022F400621A60FB68212283F83D20FB684C
:1019C800102283F83E20FB6800221A64FB687A68BC
:1019D8005A62FB683A895A85FB685B8D9AB2FB6844
:1019E8001A85FB68504ADA6279897B693A6AF8682D
:1019F80000F09CF80346002B01D001238DE0002362
:101A08003B61FB681B685B693B61FB681B689B6902
:101A18003B613B6966E07A69396AF86800F022FA46
:101A28000346002B0DD0FB681B6C042B07D1FB6809
:101A38001B681A68FB681B6842F400721A6001236D
:101A48006BE0FB685B6A1A78FB681B681A61FB68C5
:101A58005B6A5A1CFB685A62FB685B8D9BB2013B50
:101A68009AB2FB685A85FB681B8D013B9AB2FB68EA
:101A78001A85FB681B685B6903F00403042B1BD100
:101A8800FB681B8D002B17D0FB685B6A1A78FB6814
:101A98001B681A61FB685B6A5A1CFB685A62FB6820
:101AA8005B8D9BB2013B9AB2FB685A85FB681B8D24
:101AB800013B9AB2FB681A857A69396AF86800F0BE
:101AC80019FA0346002B0DD0FB681B6C042B07D1B9
:101AD800FB681B681A68FB681B6842F400721A608E
:101AE80001231AE0FB681B8D002B94D1FB681B684F
:101AF8001A68FB681B6842F400721A60FB682022AF
:101B080083F83D20FB68002283F83E20FB68002212
:101B180083F83C20002300E0022318461837BD460E
:101B280080BD00BF020010000000FFFF80B588B034
:101B380002AFF8607A603B600B467B81FB68DB6A2A
:101B48007B617B69082B06D07B69012B03D07B69FD
:101B580013F5803F08D1FB681B681A68FB681B688F
:101B680042F480721A600BE0FB681B6B122B07D1E2
:101B7800FB681B681A68FB681B6842F480721A606D
:101B88003B6800937B6800224FF00111F86800F071
:101B98004FF80346002B0DD0FB681B681B6803F445
:101BA8008073B3F5807F03D1FB684FF400721A6429
:101BB800032335E0FB681B69B3F5804F08D17B89A7
:101BC800DBB21A46FB681B6802F0FE021A611BE0D2
:101BD8007B89DB11DBB203F00603DBB263F00F0392
:101BE800DAB2FB681B681A613B687A680E49F868C4
:101BF80000F098F80346002B01D0012310E07B8900
:101C0800DAB2FB681B681A613B687A680749F868AA
:101C180000F088F80346002B01D0012300E00023E0
:101C280018461837BD4680BD0800010002000100B3
:101C380080B584B000AFF860B9603B601346FB71B3
:101C480048E03B68B3F1FF3F44D0FFF705FA02468E
:101C5800BB69D31A3A689A4202D33B68002B39D140
:101C6800BB681B0CDBB2012B0DD1FB681B685B69E1
:101C7800DA43BB6813409BB2002B0CBF012300233F
:101C8800DBB21A460CE0FB681B689B69DA43BB6849
:101C980013409BB2002B0CBF01230023DBB21A4672
:101CA800FB799A4216D1FB6800221A63FB6820224E
:101CB80083F83D20FB68002283F83E20FB681B6CFC
:101CC80043F02002FB681A64FB68002283F83C207A
:101CD800012323E0BB681B0CDBB2012B0DD1FB6891
:101CE8001B685B69DA43BB6813409BB2002B0CBFCF
:101CF80001230023DBB21A460CE0FB681B689B69D2
:101D0800DA43BB6813409BB2002B0CBF01230023AE
:101D1800DBB21A46FB799A4293D000231846103753
:101D2800BD4680BD80B584B000AFF860B9607A6008
:101D38003B6071E0FB681B685B6903F48063B3F583
:101D4800806F23D1FB681B681A68FB681B6842F424
:101D580000721A60FB681B686FF480625A61FB6846
:101D680000221A63FB68202283F83D20FB680022CA
:101D780083F83E20FB681B6C43F00402FB681A647E
:101D8800FB68002283F83C20012367E07B68B3F1FD
:101D9800FF3F41D0FFF760F902463B68D31A7A68E3
:101DA8009A4202D37B68002B36D1BB681B0CDBB28E
:101DB800012B0CD1FB681B685B69DA43BB681340D5
:101DC8009BB2002B14BF01230023DBB20BE0FB689E
:101DD8001B689B69DA43BB6813409BB2002B14BF96
:101DE80001230023DBB2002B16D0FB6800221A6304
:101DF800FB68202283F83D20FB68002283F83E2000
:101E0800FB681B6C43F02002FB681A64FB68002225
:101E180083F83C20012321E0BB681B0CDBB2012BBB
:101E28000CD1FB681B685B69DA43BB6813409BB243
:101E3800002B14BF01230023DBB20BE0FB681B68F7
:101E48009B69DA43BB6813409BB2002B14BF012384
:101E58000023DBB2002B7FF46DAF00231846103748
:101E6800BD4680BD80B584B000AFF860B9607A60C7
:101E780034E0F86800F086F80346002B01D001230F
:101E880034E0BB68B3F1FF3F28D0FFF7E5F802461E
:101E98007B68D31ABA689A4202D3BB68002B1DD15B
:101EA800FB681B685B6903F08003802B16D0FB6816
:101EB80000221A63FB68202283F83D20FB68002279
:101EC80083F83E20FB681B6C43F02002FB681A6411
:101ED800FB68002283F83C20012307E0FB681B68AD
:101EE8005B6903F08003802BC3D1002318461037A9
:101EF800BD4680BD80B584B000AFF860B9607A6037
:101F080034E0F86800F03EF80346002B01D00123C6
:101F180034E0BB68B3F1FF3F28D0FFF79DF80246D5
:101F28007B68D31ABA689A4202D3BB68002B1DD1CA
:101F3800FB681B685B6903F00403042B16D0FB687D
:101F480000221A63FB68202283F83D20FB680022E8
:101F580083F83E20FB681B6C43F02002FB681A6480
:101F6800FB68002283F83C20012307E0FB681B681C
:101F78005B6903F00403042BC3D100231846103710
:101F8800BD4680BD80B483B000AF78607B681B68B5
:101F98005B6903F48063B3F5806F1BD17B681B68B2
:101FA8006FF480625A617B6800221A637B68202282
:101FB80083F83D207B68002283F83E207B681B6CF9
:101FC80043F004027B681A647B68002283F83C2093
:101FD800012300E0002318460C37BD465DF8047B5A
:101FE8007047000080B586B000AF78607B68002B32
:101FF80001D1012367E27B681B6803F00103002B12
:1020080075D0884B9B6803F00C03042B0CD0854BD0
:102018009B6803F00C03082B12D1824B5B6803F416
:102028008003B3F5800F0BD17E4B1B6803F400339C
:10203800002B5BD07B685B68002B57D1012342E201
:102048007B685B68B3F5803F06D1764B1B68754AA1
:1020580043F4803313601DE07B685B68B3F5A02F01
:102068000CD1704B1B686F4A43F4802313606D4B8F
:102078001B686C4A43F4803313600BE0694B1B68A0
:10208800684A23F480331360664B1B68654A23F45F
:10209800802313607B685B68002B13D0FEF7DCFF9E
:1020A800386108E0FEF7D8FF02463B69D31A642B73
:1020B80001D9032307E25B4B1B6803F40033002BB1
:1020C800F0D014E0FEF7C8FF386108E0FEF7C4FF5F
:1020D80002463B69D31A642B01D90323F3E1514B20
:1020E8001B6803F40033002BF0D100E000BF7B68CD
:1020F8001B6803F00203002B63D04A4B9B6803F074
:102108000C03002B0BD0474B9B6803F00C03082BE8
:102118001CD1444B5B6803F48003002B16D1414B60
:102128001B6803F00203002B05D07B68DB68012BDA
:1021380001D00123C7E13B4B1B6823F0F8027B6801
:102148001B69DB00374913430B603AE07B68DB68A7
:10215800002B20D0344B01221A60FEF77DFF386136
:1021680008E0FEF779FF02463B69D31A022B01D932
:102178000323A8E12B4B1B6803F00203002BF0D0CC
:10218800284B1B6823F0F8027B681B69DB00254994
:1021980013430B6015E0244B00221A60FEF75CFF26
:1021A800386108E0FEF758FF02463B69D31A022B54
:1021B80001D9032387E11B4B1B6803F00203002BA3
:1021C800F0D17B681B6803F00803002B36D07B68CE
:1021D8005B69002B16D0154B01221A60FEF73CFFF5
:1021E800386108E0FEF738FF02463B69D31A022B34
:1021F80001D9032367E10B4B5B6F03F00203002B4C
:10220800F0D01BE0094B00221A60FEF725FF386169
:102218000EE0FEF721FF02463B69D31A022B07D9CD
:10222800032350E10038024000004742800E474235
:10223800884B5B6F03F00203002BEAD17B681B68B5
:1022480003F00403002B00F097800023FB75814BFB
:102258001B6C03F08053002B0FD10023BB607D4B18
:102268001B6C7C4A43F0805313647A4B1B6C03F05D
:102278008053BB60BB680123FB75774B1B6803F475
:102288008073002B18D1744B1B68734A43F4807316
:102298001360FEF7E1FE386108E0FEF7DDFE024656
:1022A8003B69D31A022B01D903230CE16A4B1B6843
:1022B80003F48073002BF0D07B689B68012B06D158
:1022C800644B1B6F634A43F0010313671CE07B6890
:1022D8009B68052B0CD15F4B1B6F5E4A43F00403D0
:1022E80013675C4B1B6F5B4A43F0010313670BE0FA
:1022F800584B1B6F574A23F001031367554B1B6F4D
:10230800544A23F0040313677B689B68002B15D09D
:10231800FEF7A2FE38610AE0FEF79EFE02463B6920
:10232800D31A41F28832934201D90323CBE0494BB7
:102338001B6F03F00203002BEED014E0FEF78CFEB7
:1023480038610AE0FEF788FE02463B69D31A41F27B
:102358008832934201D90323B5E03E4B1B6F03F04B
:102368000203002BEED1FB7D012B05D1394B1B6CF1
:10237800384A23F0805313647B689B69002B00F074
:10238800A180344B9B6803F00C03082B5CD07B685E
:102398009B69022B41D1314B00221A60FEF75CFE8B
:1023A800386108E0FEF758FE02463B69D31A022B53
:1023B80001D9032387E0274B1B6803F00073002B28
:1023C800F0D17B68DA697B681B6A1A437B685B6AB1
:1023D8009B011A437B689B6A5B08013B1B041A43F9
:1023E8007B68DB6A1B061B4913434B601B4B0122AE
:1023F8001A60FEF731FE386108E0FEF72DFE02464E
:102408003B69D31A022B01D903235CE0114B1B68EB
:1024180003F00073002BF0D054E0104B00221A6038
:10242800FEF71AFE386108E0FEF716FE02463B6921
:10243800D31A022B01D9032345E0064B1B6803F08E
:102448000073002BF0D13DE07B689B69012B07D11D
:10245800012338E000380240007000406000474225
:102468001B4B5B68FB607B689B69012B28D0FB6872
:1024780003F480027B68DB699A4221D1FB6803F090
:102488003F027B681B6A9A421AD1FA6847F6C07302
:1024980013407A68526A9201934211D1FB6803F49F
:1024A80040327B689B6A5B08013B1B049A4207D158
:1024B800FB6803F070627B68DB6A1B069A4201D0F6
:1024C800012300E0002318461837BD4680BD00BF31
:1024D8000038024080B584B000AF786039607B680E
:1024E800002B01D10123CCE0684B1B6803F00703E4
:1024F8003A689A420CD9654B3A68D2B21A70634B63
:102508001B6803F007033A689A4201D00123B8E038
:102518007B681B6803F00203002B20D07B681B68D4
:1025280003F00403002B05D0594B9B68584A43F429
:10253800E05393607B681B6803F00803002B05D009
:10254800534B9B68524A43F460439360504B9B68DB
:1025580023F0F0027B689B684D4913438B607B68CE
:102568001B6803F00103002B44D07B685B68012BD8
:1025780007D1474B1B6803F40033002B19D1012303
:102588007FE07B685B68022B03D07B685B68032B6A
:1025980007D13F4B1B6803F00073002B09D10123BF
:1025A8006FE03B4B1B6803F00203002B01D10123B2
:1025B80067E0374B9B6823F003027B685B6834490C
:1025C80013438B60FEF748FDF8600AE0FEF744FD10
:1025D8000246FB68D31A41F28832934201D9032399
:1025E8004FE02B4B9B6803F00C027B685B689B00F9
:1025F8009A42EBD1254B1B6803F007033A689A42CD
:102608000CD2224B3A68D2B21A70204B1B6803F0E6
:1026180007033A689A4201D0012332E07B681B68BD
:1026280003F00403002B08D0194B9B6823F4E052F5
:102638007B68DB68164913438B607B681B6803F073
:102648000803002B09D0124B9B6823F460427B6877
:102658001B69DB000E4913438B6000F021F802462A
:102668000B4B9B681B0903F00F030A49CB5C22FA4A
:1026780003F3094A1360094B1B681846FEF7A8FCC8
:10268800002318461037BD4680BD00BF003C0240FD
:1026980000380240182A000810000020140000200A
:1026A8002DE9B04F94B000AF00237B640023FB6496
:1026B80000233B640023BB64794B9B6803F00C0345
:1026C800082B0DD0082B00F2E180002B02D0042B40
:1026D80003D0DBE0734BBB64DBE0734BBB64D8E037
:1026E8006F4B5B6803F03F037B646D4B5B6803F4DF
:1026F8008003002B63D06A4B5B689B090022BB6395
:10270800FA63BB6BC3F308033B6300237B63D7E91E
:102718000C4522462B464FF000004FF000015901AE
:1027280041EAD261500102460B462146511A3961ED
:10273800294663EB01037B614FF000024FF0000371
:10274800D7E904AB59468B01514643EA9163514698
:102758008A015146B2EB0108594663EB01094FF073
:1027680000024FF000034FEAC90343EA58734FEAE7
:10277800C80290469946234618EB0303BB602B46D4
:1027880049EB0303FB604FF000024FF00003D7E969
:10279800024529464B02214643EAD15321464A02C3
:1027A800104619467B6C0022BB62FA62D7E90A23FD
:1027B800FDF706FD02460B461346FB6458E0384B0E
:1027C8005B689B09002218461146C0F308033B6268
:1027D80000237B62D7E9088942464B464FF0000048
:1027E8004FF00001590141EAD261500102460B46FF
:1027F8004146B2EB010A494663EB010B4FF0000278
:102808004FF000034FEA8B1343EA9A634FEA8A12A8
:10281800B2EB0A0463EB0B054FF000024FF0000324
:10282800EB0043EA5473E20014461D464346E3189E
:102838003B604B4645EB03037B604FF000024FF0D3
:102848000003D7E9004529468B02214643EA915304
:1028580021468A02104619467B6C0022BB61FA6148
:10286800D7E90623FDF7ACFC02460B461346FB648A
:102878000B4B5B681B0C03F0030301335B003B64E9
:10288800FA6C3B6CB2FBF3F3BB6402E0054BBB6430
:1028980000BFBB6C18465037BD46BDE8B08F00BFBF
:1028A800003802400024F40000127A0080B400AF1F
:1028B800034B1B681846BD465DF8047B704700BF94
:1028C8001000002080B500AFFFF7F0FF0246054B6F
:1028D8009B689B0A03F007030349CB5C22FA03F3C6
:1028E800184680BD00380240282A000802440346E2
:1028F800934200D1704703F8011BF9E770B50D4DFD
:102908000D4C641BA4100026A64209D10B4D0C4C9B
:1029180000F018F8641BA4100026A64205D170BD6B
:1029280055F8043B98470136EEE755F8043B9847BD
:102938000136F2E7382A0008382A0008382A000841
:102948003C2A0008F8B500BFF8BC08BC9E46704792
:0C295800F8B500BFF8BC08BC9E467047F4
:1029640000000000400000001400000054000000BB
:1029740053595354454D00004F4E00004F464600F6
:102984004D6F6465206A6F75722061637469766542
:10299400000000004C756D6965726520666F727485
:1029A400650000004D6F6465206E75697420616375
:1029B40074697665000000004C756D696572652068
:1029C400666169626C650000536F6C2073656320F7
:1029D4002D00000049727269676174696F6E0000AE
:1029E400536F6C2068756D696465000050617320D5
:1029F4006427616374696F6E000000004170707534
:102A040079657220737572006C6520627574746FD9
:102A14006E0000000000000000000000010203043A
:0C2A24000607080900000000010203047E
:082A3000C8D7FF7F0100000080
:042A3800AD010008E4
:042A3C008901000804
:102A400000191B060C1B13001818060908090600BC
:0C2A50000024F400100000000100000051
:0400000508000F419F
:00000001FF
