:020000040800F2
:100000000000022011220008991F0008A11F00080B
:10001000A91F0008B11F0008B91F00080000000058
:10002000000000000000000000000000C11F0008E8
:10003000CF1F000800000000DD1F0008EB1F0008B4
:100040006122000861220008612200086122000884
:100050006122000861220008F71F0008052000083F
:100060006122000861220008612200086122000864
:100070006122000861220008612200086122000854
:100080006122000861220008152000086122000892
:10009000612200086122000861220008292000086E
:1000A0006122000861220008612200086122000824
:1000B0006122000861220008612200086122000814
:1000C0006122000861220008612200086122000804
:1000D00061220008612200086122000861220008F4
:1000E00061220008612200086122000861220008E4
:1000F00061220008612200086122000861220008D4
:1001000061220008612200086122000861220008C3
:100110006122000861220008392000084D200008F3
:1001200061220008612200086122000861220008A3
:100130006122000861220008612200086122000893
:100140006122000861220008612200086122000883
:100150006122000861220008612200086122000873
:100160006122000861220008612200086122000863
:1001700061220008612200086122000800000000DE
:08018000612200086122000861
:1001900010B5054C237833B9044B13B10448AFF3C1
:1001A00000800123237010BDE40100200000000046
:1001B0006880000808B5034B1BB103490348AFF33F
:1001C000008008BD00000000E801002068800008F1
:1001D00001F0FF01102A2BDB10F0070F08D010F8F8
:1001E000013B013A8B422DD010F0070F42B3F6D1FC
:1001F000F0B441EA012141EA014122F007047FF015
:1002000000070023F0E80256083C85EA010586EA6B
:10021000010685FA47F5A3FA87F586FA47F6A5FAA7
:1002200087F68EB9EED1F0BC01F0FF0102F00702B3
:1002300032B110F8013B013A83EA010313B1F8D15E
:100240000020704701387047002D06BF354603383F
:10025000073815F0010F07D1013015F4807F02BF78
:10026000013015F4C03F0130F0BC0138704700BFC9
:10027000034613F8012B002AFBD1181A01387047E6
:1002800081F0004102E000BF83F0004330B54FEA47
:1002900041044FEA430594EA050F08BF90EA020FB4
:1002A0001FBF54EA000C55EA020C7FEA645C7FEA47
:1002B000655C00F0E2804FEA5454D4EB5555B8BF6A
:1002C0006D420CDD2C4480EA020281EA030382EADB
:1002D000000083EA010180EA020281EA0303362D6D
:1002E00088BF30BD11F0004F4FEA01314FF4801C40
:1002F0004CEA113102D0404261EB410113F0004F52
:100300004FEA03334CEA133302D0524263EB430308
:1003100094EA050F00F0A780A4F10104D5F1200EA6
:100320000DDB02FA0EFC22FA05F2801841F1000101
:1003300003FA0EF2801843FA05F359410EE0A5F1D5
:1003400020050EF1200E012A03FA0EFC28BF4CF006
:10035000020C43FA05F3C01851EBE37101F00045BC
:1003600007D54FF0000EDCF1000C7EEB00006EEBC9
:100370000101B1F5801F1BD3B1F5001F0CD3490853
:100380005FEA30004FEA3C0C04F101044FEA4452AA
:1003900012F5800F80F09A80BCF1004F08BF5FEA31
:1003A000500C50F1000041EB045141EA050130BD11
:1003B0005FEA4C0C404141EB0101013C28BFB1F523
:1003C000801FE9D291F0000F04BF01460020B1FA6E
:1003D00081F308BF2033A3F10B03B3F120020CDA41
:1003E0000C3208DD02F1140CC2F10C0201FA0CF01F
:1003F00021FA02F10CE002F11402D8BFC2F1200C84
:1004000001FA02F120FA0CFCDCBF41EA0C01904039
:10041000E41AA2BF01EB0451294330BD6FEA040482
:100420001F3C1CDA0C340EDC04F11404C4F120026D
:1004300020FA04F001FA02F340EA030021FA04F37F
:1004400045EA030130BDC4F10C04C4F1200220FAD6
:1004500002F001FA04F340EA0300294630BD21FA14
:1004600004F0294630BD94F0000F83F4801306BFDA
:1004700081F480110134013D4EE77FEA645C18BFCE
:100480007FEA655C29D094EA050F08BF90EA020F65
:1004900005D054EA000C04BF1946104630BD91EA5D
:1004A000030F1EBF0021002030BD5FEA545C05D160
:1004B0004000494128BF41F0004130BD14F580049F
:1004C0003CBF01F5801130BD01F0004545F0FE4113
:1004D00041F470014FF0000030BD7FEA645C1ABF48
:1004E000194610467FEA655C1CBF0B46024650EA7F
:1004F000013406BF52EA033591EA030F41F40021AB
:1005000030BD00BF90F0000F04BF0021704730B530
:100510004FF4806404F132044FF000054FF0000105
:1005200050E700BF90F0000F04BF0021704730B5C6
:100530004FF4806404F1320410F0004548BF40429B
:100540004FF000013EE700BF42004FEAE2014FEAF0
:1005500031014FEA02701FBF12F07F4393F07F4FCB
:1005600081F06051704732F07F4208BF704793F0CE
:100570007F4F04BF41F40021704730B54FF46074E1
:1005800001F0004521F000411CE700BF50EA0102E4
:1005900008BF704730B54FF000050AE050EA01028D
:1005A00008BF704730B511F0004502D5404261EBFD
:1005B00041014FF4806404F132045FEA915C3FF43E
:1005C000D8AE4FF003025FEADC0C18BF03325FEADB
:1005D000DC0C18BF033202EBDC02C2F1200300FA8C
:1005E00003FC20FA02F001FA03FE40EA0E0021FAB1
:1005F00002F11444BDE600BF70B54FF0FF0C4CF49F
:10060000E06C1CEA11541DBF1CEA135594EA0C0F50
:1006100095EA0C0F00F0DEF82C4481EA030621EA8B
:100620004C5123EA4C5350EA013518BF52EA0335C6
:1006300041F4801143F4801338D0A0FB02CE4FF078
:100640000005E1FB02E506F00042E0FB03E54FF0A8
:100650000006E1FB03569CF0000F18BF4EF0010EA0
:10066000A4F1FF04B6F5007F64F5407404D25FEA9C
:100670004E0E6D4146EB060642EAC62141EA55514F
:100680004FEAC52040EA5E504FEACE2EB4F1FD0C91
:1006900088BFBCF5E06F1ED8BEF1004F08BF5FEA0F
:1006A000500E50F1000041EB045170BD06F00046C1
:1006B00046EA010140EA020081EA0301B4EB5C046E
:1006C000C2BFD4EB0C0541EA045170BD41F4801166
:1006D0004FF0000E013C00F3AB8014F1360FDEBF8B
:1006E000002001F0004170BDC4F10004203C35DA67
:1006F0000C341BDC04F11404C4F1200500FA05F3EA
:1007000020FA04F001FA05F240EA020001F000428A
:1007100021F0004110EBD37021FA04F642EB060100
:100720005EEA430E08BF20EAD37070BDC4F10C042A
:10073000C4F1200500FA04F320FA05F001FA04F2EE
:1007400040EA020001F0004110EBD37041F10001DA
:100750005EEA430E08BF20EAD37070BDC4F12005E5
:1007600000FA05F24EEA020E20FA04F301FA05F24D
:1007700043EA020321FA04F001F0004121FA04F2F5
:1007800020EA020000EBD3705EEA430E08BF20EAC5
:10079000D37070BD94F0000F0FD101F000464000FF
:1007A00041EB010111F4801F08BF013CF7D041EA81
:1007B000060195F0000F18BF704703F00046520085
:1007C00043EB030313F4801F08BF013DF7D043EA56
:1007D0000603704794EA0C0F0CEA135518BF95EA0C
:1007E0000C0F0CD050EA410618BF52EA4306D1D193
:1007F00081EA030101F000414FF0000070BD50EAB2
:10080000410606BF1046194652EA430619D094EA3B
:100810000C0F02D150EA013613D195EA0C0F05D125
:1008200052EA03361CBF104619460AD181EA030179
:1008300001F0004141F0FE4141F470014FF0000031
:1008400070BD41F0FE4141F4780170BD70B54FF0CC
:10085000FF0C4CF4E06C1CEA11541DBF1CEA13554C
:1008600094EA0C0F95EA0C0F00F0A7F8A4EB05042E
:1008700081EA030E52EA03354FEA013100F0888025
:100880004FEA03334FF0805545EA131343EA1263EE
:100890004FEA022245EA111545EA10654FEA0026A3
:1008A0000EF000419D4208BF964244F1FD0404F55C
:1008B000407402D25B084FEA3202B61A65EB0305B8
:1008C0005B084FEA32024FF480104FF4002CB6EB75
:1008D000020E75EB030E22BFB61A754640EA0C00F5
:1008E0005B084FEA3202B6EB020E75EB030E22BF35
:1008F000B61A754640EA5C005B084FEA3202B6EB76
:10090000020E75EB030E22BFB61A754640EA9C0034
:100910005B084FEA3202B6EB020E75EB030E22BF04
:10092000B61A754640EADC0055EA060E18D04FEAC2
:10093000051545EA16754FEA06164FEAC30343EA62
:1009400052734FEAC2025FEA1C1CC0D111F4801F2F
:100950000BD141EA00014FF000004FF0004CB6E728
:1009600011F4801F04BF01430020B4F1FD0C88BFC7
:10097000BCF5E06F3FF6AFAEB5EB030C04BFB6EBD2
:10098000020C5FEA500C50F1000041EB045170BDC5
:100990000EF0004E4EEA113114EB5C04C2BFD4EBF2
:1009A0000C0541EA045170BD41F480114FF0000E76
:1009B000013C90E645EA060E8DE60CEA135594EAF2
:1009C0000C0F08BF95EA0C0F3FF43BAF94EA0C0FF5
:1009D0000AD150EA01347FF434AF95EA0C0F7FF46A
:1009E00025AF104619462CE795EA0C0F06D152EABE
:1009F00003353FF4FDAE1046194622E750EA4106A2
:100A000018BF52EA43067FF4C5AE50EA41047FF4B2
:100A10000DAF52EA43057FF4EBAE12E74FF0FF3C17
:100A200006E000BF4FF0010C02E000BF4FF0010CE8
:100A30004DF804CD4FEA410C7FEA6C5C4FEA430C61
:100A400018BF7FEA6C5C1BD001B050EA410C0CBFB0
:100A500052EA430C91EA030F02BF90EA020F002012
:100A6000704710F1000F91EA030F58BF994208BF79
:100A700090422CBFD8176FEAE37040F00100704736
:100A80004FEA410C7FEA6C5C02D150EA013C07D18D
:100A90004FEA430C7FEA6C5CD6D152EA033CD3D0D8
:100AA0005DF8040B704700BF8446104662468C46D2
:100AB0001946634600E000BF01B5FFF7B7FF002805
:100AC00048BF10F1000F01BD4DF808EDFFF7F4FF2E
:100AD0000CBF012000205DF808FB00BF4DF808EDB9
:100AE000FFF7EAFF34BF012000205DF808FB00BFDC
:100AF0004DF808EDFFF7E0FF94BF012000205DF8FE
:100B000008FB00BF4DF808EDFFF7CEFF94BF0120B2
:100B100000205DF808FB00BF4DF808EDFFF7C4FFAB
:100B200034BF012000205DF808FB00BF4FEA410CF4
:100B30007FEA6C5C02D150EA013C0AD14FEA430CD7
:100B40007FEA6C5C02D152EA033C02D14FF0000014
:100B500070474FF0010070474FEA410212F5001252
:100B600015D211D56FF47873B3EB625212D94FEAF4
:100B7000C12343F0004343EA505311F0004F23FADE
:100B800002F018BF404270474FF00000704750EA33
:100B9000013005D111F0004008BF6FF000407047F0
:100BA0004FF00000704700BF53B94AB9002908BF91
:100BB00000281CBF4FF0FF314FF0FF3000F088B924
:100BC000ADF1080C6DE904CE00F006F8DDF804E0A4
:100BD000DDE9022304B070472DE9F047089D8E46F9
:100BE00004468846002B4AD18A42174662D9B2FA97
:100BF00082F64EB1C6F1200301FA06F820FA03F39B
:100C0000B74043EA0808B4404FEA174E1FFA87FC82
:100C1000B8FBFEF1230C0EFB118843EA084301FBED
:100C20000CF29A4209D9FB1801F1FF3080F0EA80FA
:100C30009A4240F2E78002393B449A1AA3B2B2FBCF
:100C4000FEF00EFB102243EA024300FB0CFC9C4525
:100C500009D9FB1800F1FF3280F0D6809C4540F2A4
:100C6000D3803B44023840EA0140A3EB0C0300214F
:100C70001DB1F3400022C5E90032BDE8F0878B4288
:100C800005D90DB1C5E9000100210846F5E7B3FA21
:100C900083F1002946D1734502D3824200F20581D7
:100CA000841A6EEB030201209046002DE5D0C5E9C1
:100CB0000048E2E7002A00F09080B2FA82F6002EA7
:100CC00040F0A4808A1A030C4FEA174E80B2BCB2DF
:100CD0000121B2FBFEFC0EFB1C2243EA024304FB93
:100CE0000CF29A4207D9FB180CF1FF3802D29A4253
:100CF00000F2E080C4469B1AB3FBFEF20EFB1233F7
:100D000040EA034302FB04F49C4207D9FB1802F1BA
:100D1000FF3002D29C4200F2CA8002461B1B42EA0C
:100D20000C40A5E7C1F120068B4022FA06F71F43CD
:100D30000EFA01F420FA06F32EFA06FE4FEA1749DE
:100D4000234300FA01F81FFA87FCBEFBF9F01C0CE4
:100D500009FB10EE44EA0E4400FB0CFEA64502FA25
:100D600001F209D93C1900F1FF3A80F09C80A645B8
:100D700040F2998002383C44A4EB0E041FFA83FE33
:100D8000B4FBF9F309FB13444EEA044403FB0CFCE7
:100D9000A44508D93C1903F1FF3E80F08280A445A8
:100DA0007FD9023B3C4443EA0040A4EB0C04A0FB87
:100DB00002EC64457346E14662D35FD05DB1B8EBA7
:100DC000030264EB090404FA06F622FA01F31E4357
:100DD000CC40C5E9006400214FE7B1FBF2FC010CF7
:100DE00041EA0E4180B240EA01423B4638463C4669
:100DF000B846BE462026B1FBF7F1A2EB080241EA55
:100E00000C4166E7014618E710462CE7C6F12002C0
:100E10002EFA02F3B740B14020FA02F24FEA174E21
:100E20000A43B3FBFEF8BCB20EFB1833110C41EAC7
:100E3000034108FB04F9B04089454FEA104380B2F2
:100E40003ED9791808F1FF3C01D289451FD8A1EBA2
:100E50000901B1FBFEF909FB04F80EFB191192B26E
:100E600042EA0142424529D2BA1809F1FF31C4D2FF
:100E70004245C2D2A9F102013A44BEE7F0459DD2F3
:100E8000BEEB02036CEB070C0138E14696E7A7EBDB
:100E900009094944A8F1020CB1FBFEF909FB04F869
:100EA000DBE773467FE7504666E70846FDE63B44CE
:100EB000023A33E7ACF1020C3B441CE749469CE79D
:100EC000A1EB0901C446B1FBFEF909FB04F8C4E734
:100ED000704700BF80B582B000AF0346FB71384A4F
:100EE000FB791370374B08221A70374B00221A70A7
:100EF000334B1B78012B07D9334B1B7843F0080386
:100F0000DAB2314B1A7006E02F4B1B7843F0040322
:100F1000DAB22D4B1A7000F087F9322001F014FA82
:100F2000284B1B78184600F045F94FF47A7001F011
:100F30000BFA302000F02CF941F2941000F09EF9E9
:100F4000302000F025F941F2941000F097F930209C
:100F500000F01EF941F2941000F090F9202000F00A
:100F600017F9642000F08AF9174B1B7843F020032F
:100F7000DBB2184600F0CFF8144B04221A7000F0D0
:100F800075F800F02BF8124B02221A70104B1B78E8
:100F900043F00403DBB2184600F0BDF841F29410B0
:100FA00000F06CF90B49002000F076F80A490120A6
:100FB00000F072F800F01DF800BF0837BD4680BD94
:100FC0000302002004020020000200200102002091
:100FD00002020020000000200800002080B500AFC1
:100FE000012000F098F84FF4FA6000F047F900BFD4
:100FF00080BD80B500AF022000F08DF84FF4FA609C
:1010000000F03CF900BF80BD90B587B000AF03464B
:101010000A46FB711346BB71124B07F108040FCB54
:1010200084E80F00104B1B78BA799A4203D30E4B19
:101030001B78013BBB71BB799B0018333B4453F8D1
:10104000103CDAB2FB791344DBB25BB263F07F038E
:101050005BB2DBB2184600F05EF800BF1C37BD463D
:1010600090BD00BF808000080302002080B500AF63
:10107000084B1B7843F00403DAB2064B1A70054B99
:101080001B7843F00803DBB2184600F044F800BFB9
:1010900080BD00BF0102002080B584B000AF0346D0
:1010A0003960FB71FB7903F00703FB7197F9073097
:1010B000DB005BB243F040035BB2DBB2184600F0EA
:1010C0002AF80023FB6009E0FB683A6813441B78A8
:1010D000184600F02EF8FB680133FB60FB68072B15
:1010E000F2DD00BF00BF1037BD4680BD80B582B0C5
:1010F00000AF786006E07B685A1C7A601B7818465F
:1011000000F017F87B681B78002BF4D100BF00BFFC
:101110000837BD4680BD80B582B000AF0346FB7185
:10112000FB790021184600F012F800BF0837BD46D1
:1011300080BD80B582B000AF0346FB71FB79012111
:10114000184600F004F800BF0837BD4680BD80B5E2
:1011500084B000AF03460A46FB711346BB71FB79AE
:1011600023F00F03FB73FB791B01BB73FA7BBB7985
:101170001343DBB2184600F00BF8BA7BBB7913437C
:10118000DBB2184600F004F800BF1037BD4680BD42
:1011900080B582B000AF0346FB71FB79184600F0C2
:1011A00009F8FB79184600F021F800BF0837BD4662
:1011B00080BD000080B586B002AF0346FB71094BCD
:1011C0001A78FB791343DBB2FB7307F10F020A2392
:1011D000009301234E21044802F0CEF900BF1037DE
:1011E000BD4680BD040200205002002080B582B0C0
:1011F00000AF0346FB71FB7943F00403DBB21846F2
:10120000FFF7D8FF142000F039F8FB7923F004032E
:10121000DBB21846FFF7CEFF142000F02FF800BF16
:101220000837BD4680BD000080B400AF114BDB68BD
:10123000104A23F08073D3600E4BDB680D4A43F0F5
:101240008073D3600C4B1B680B4A23F001031360BF
:10125000094B1B68084A43F001031360064B002248
:101260005A6000BF00BF00BF00BFBD465DF8047BF1
:10127000704700BFF0ED00E0001000E080B487B0E0
:1012800000AF78600E4B1B680E4AA2FB03239A0C3A
:101290007B6802FB03F37B610B4B5B683B610A4B92
:1012A0005A683B69D31AFB60FB687A699A42F6D8A0
:1012B00000BF00BF1C37BD465DF8047B704700BF10
:1012C0001000002083DE1B43001000E080B584B0D6
:1012D00000AF0346FB80FB88402B58D1734B1B6843
:1012E000002B0CBF01230023DBB21A466F4B1A60A0
:1012F0006E4B1B68002B28D001224FF480516C48A4
:1013000001F0C4FF00224FF40041694801F0BEFF24
:1013100000224FF40051664801F0B8FF00224FF45C
:101320008041634801F0B2FFFFF758FE0021002022
:10133000FFF76AFE5F48FFF7D9FE01210020FFF7A3
:1013400063FE5D48FFF7D2FE21E000224FF480519A
:10135000574801F09BFF00224FF40041544801F030
:1013600095FF00224FF40051514801F08FFFFFF725
:1013700035FE00210020FFF747FE4E48FFF7B6FE7E
:1013800001210020FFF740FE4C48FFF7AFFEFB882D
:10139000012B3FD1454B1B68002B3BD00121484816
:1013A00001F05CFF0346FB73FB7B012B19D0454B1F
:1013B00000221A7000224FF400413D4801F066FF00
:1013C000FFF70CFE00210020FFF71EFE3E48FFF74E
:1013D0008DFE01210020FFF717FE3C48FFF786FE37
:1013E00018E0384B01221A7001224FF400413048B6
:1013F00001F04CFFFFF7F2FD00210020FFF704FE93
:101400003348FFF773FE01210020FFF7FDFD31484F
:10141000FFF76CFEFB88022B44D1244B1B68002B8A
:1014200040D00221264801F019FF0346BB73BB7B65
:10143000012B1DD101224FF400511D4801F026FF60
:101440000021254803F0BEF9244B01221A60FFF762
:10145000C5FD00210020FFF7D7FD2148FFF746FE1C
:1014600001210020FFF7D0FD1E48FFF73FFE19E0E5
:101470000021194803F06EFA00224FF400510C4885
:1014800001F004FFFFF7AAFD00210020FFF7BCFDDB
:101490001548FFF72BFE01210020FFF7B5FD13488B
:1014A000FFF724FE00BF1037BD4680BD7C0300203F
:1014B000000C024090800008988000089C80000882
:1014C0000000024088030020A0800008B4800008CB
:1014D000C4800008D8800008A402002080030020F7
:1014E000E8800008F48000080481000810810008EA
:1014F00080B582B000AF78607B681B68164A934263
:1015000003D1164800F088FF22E07B681B68144A6C
:1015100093421DD100224FF40041124801F0B6FE63
:1015200000224FF400510F4801F0B0FE00224FF4AA
:1015300080410C4801F0AAFE002204210A4801F073
:10154000A5FE0021094803F005FA094803F0B2F8A6
:1015500000BF0837BD4680BD0010004008020020D3
:1015600000140040000C024000100240A4020020C1
:101570003403002080B588B000AF78607B681B68BA
:101580002A4A93424ED1786801F071F90346FB83F1
:10159000274BBB6197ED067ADFED266AC7EE267A08
:1015A000C7ED057AFB8B07EE903AF8EEE77A97EDF8
:1015B000057A67EE277AC7ED047A97ED047ADFEDB6
:1015C0001E6AC7EE267AC7ED037A4FF480611B4886
:1015D00001F044FE0346FB72FB7A002B1FD1184B2F
:1015E00000221A60174B01221A60FFF7F7FC002156
:1015F0000020FFF709FD1448FFF778FD01210020C6
:10160000FFF702FD1148FFF771FD01224FF4804101
:101610000F4801F03BFE00210E4803F0D3F8786834
:1016200000F0D8FF00BF2037BD4680BD002001403C
:1016300033335340000080450AD7233C000002406A
:101640007C030020840300202081000830810008F2
:10165000000C0240A402002080B500AF00F002FEA2
:1016600000F06AF800F05EFA00F020F900F04CF9A2
:1016700000F0ECF900F0C8F800F01EFA264802F07D
:10168000A9FF264802F0A6FF0220FFF723FCFFF780
:10169000A5FC00210020FFF7B7FC2148FFF726FD3D
:1016A00001210020FFF7B0FC1E48FFF71FFD0122BB
:1016B00004211D4801F0EAFD1C4B1B68012B0AD1D7
:1016C0004FF4FA7000F040FE0021194803F042F98F
:1016D000164B00221A60174B1B68012BE7D14FF401
:1016E0007A7000F031FE0021114803F033F9114BFC
:1016F00000221A60FFF772FC00210020FFF784FC33
:101700000748FFF7F3FC01210020FFF77DFC0548A7
:10171000FFF7ECFCCBE700BFEC0200203403002015
:10172000408100084C810008001002408003002026
:10173000A40200208403002080B594B000AF07F11C
:10174000200330220021184604F069FD07F10C0344
:1017500000221A605A609A60DA601A610023BB6046
:10176000274B1B6C264A43F080531364244B1B6C9D
:1017700003F08053BB60BB6800237B60214B1B6878
:10178000204A43F4804313601E4B1B6803F48043DC
:101790007B607B6801233B624FF480337B620223D2
:1017A000BB634FF48003FB6304233B6432237B64FD
:1017B0000223BB640423FB6407F12003184602F0F4
:1017C00035FA0346002B01D000F08EFA0F23FB60A0
:1017D00002233B6100237B614FF48053BB610023F4
:1017E000FB6107F10C030121184602F097FC034648
:1017F000002B01D000F078FA00BF5037BD4680BD05
:10180000003802400070004080B584B000AF3B4615
:1018100000221A605A609A60DA60214B214A1A60ED
:101820001F4B00225A601E4B00229A601C4B002264
:101830001A611B4B00221A76194B002283F82020D4
:10184000174B0022DA62164B174A9A62144B002299
:10185000DA60134B0122DA61114B002283F8302049
:101860000F4B01225A610E4800F092FD0346002BF7
:1018700001D000F039FA06233B6001237B6000238E
:10188000BB603B461946064801F012F80346002BA0
:1018900001D000F029FA00BF1037BD4680BD00BF5F
:1018A00008020020002001400100000F80B500AFB9
:1018B000124B134A1A60114B124A5A600F4B002206
:1018C0009A600E4B0022DA600C4B4FF480421A6192
:1018D0000A4B00225A61094B00229A61074B0022F1
:1018E000DA61064B00221A62044801F001FD03464A
:1018F000002B01D000F0F8F900BF80BD500200209D
:1019000000540040A086010080B596B000AF07F1FA
:10191000480300221A605A609A60DA6007F14003B7
:1019200000221A605A6007F1240300221A605A60EC
:101930009A60DA601A615A619A613B1D2022002187
:10194000184604F06CFC3F4B3F4A1A603D4B0022A6
:101950005A603C4B00229A603A4B4FF47A72DA603C
:10196000384B00221A61374B00225A61354B002256
:101970009A61344802F0DEFD0346002B01D000F0EE
:10198000B3F94FF48053BB6407F1480319462D485F
:1019900003F002FA0346002B01D000F0A5F9294814
:1019A00002F0B7FE0346002B01D000F09DF90023A2
:1019B0003B6400237B6407F140031946214803F090
:1019C000F1FD0346002B01D000F08EF960237B620D
:1019D0004FF4FA73BB620023FB6200233B630023D6
:1019E0007B630023BB630023FB6307F12403002216
:1019F0001946144803F00EF90346002B01D000F0FD
:101A000073F900237B600023BB600023FB6000238D
:101A10003B6100237B614FF40053BB6100233B62B9
:101A20003B1D1946074803F039FE0346002B01D041
:101A300000F05AF9034800F075FA00BF5837BD4668
:101A400080BD00BFA40200200000014080B582B02C
:101A500000AF3B4600221A605A60154B154A1A60C7
:101A6000134B41F287325A60114B00229A60104B9F
:101A700044F61F62DA600E4B00229A610C4802F0B5
:101A800059FD0346002B01D000F02EF920233B60C6
:101A900000237B603B461946054803F083FD03465F
:101AA000002B01D000F020F900BF0837BD4680BDF3
:101AB000EC0200200010004080B582B000AF3B4631
:101AC00000221A605A60154B154A1A60134B41F2F6
:101AD00087325A60114B00229A60104B47F22F5206
:101AE000DA600E4B00229A610C4802F023FD034697
:101AF000002B01D000F0F8F800233B6000237B604E
:101B00003B461946054803F04DFD0346002B01D026
:101B100000F0EAF800BF0837BD4680BD340300205E
:101B20000014004080B58CB000AF07F11C03002208
:101B30001A605A609A60DA601A610023BB61654BD3
:101B40001B6B644A43F010031363624B1B6B03F07F
:101B50001003BB61BB6900237B615E4B1B6B5D4A5D
:101B600043F0800313635B4B1B6B03F080037B61CB
:101B70007B6900233B61574B1B6B564A43F00103C3
:101B80001363544B1B6B03F001033B613B69002360
:101B9000FB60504B1B6B4F4A43F0080313634D4BE4
:101BA0001B6B03F00803FB60FB680023BB60494B21
:101BB0001B6B484A43F004031363464B1B6B03F053
:101BC0000403BB60BB6800237B60424B1B6B414A34
:101BD00043F0020313633F4B1B6B03F002037B6074
:101BE0007B68002204213C4801F050FB00224FF4A6
:101BF00070413A4801F04AFB0423FB6101233B6238
:101C000000237B620023BB6207F11C0319463248A4
:101C100001F088F90123FB614FF444133B62002378
:101C20007B6207F11C0319462D4801F07BF9022362
:101C3000FB614FF444133B6201237B6207F11C03F9
:101C40001946274801F06EF94FF47043FB610123F8
:101C50003B6200237B620023BB6207F11C03194631
:101C60001E4801F05FF94023FB614FF488133B628B
:101C700002237B6207F11C0319461A4801F052F94E
:101C80004FF48063FB6100233B6200237B6207F11A
:101C90001C031946124801F045F9002200210620D4
:101CA00001F009F9062001F022F9002200210720A5
:101CB00001F001F9072001F01AF900220021172094
:101CC00001F0F9F8172001F012F900BF3037BD46D6
:101CD00080BD00BF0038024000100240000C0240EE
:101CE000000002400008024080B400AF72B600BF9E
:101CF00000BFFDE780B483B000AF00237B60104BD2
:101D00005B6C0F4A43F4804353640D4B5B6C03F4EC
:101D100080437B607B6800233B60094B1B6C084A57
:101D200043F080531364064B1B6C03F080533B60FD
:101D30003B6800BF0C37BD465DF8047B704700BFB1
:101D40000038024080B58AB000AF786007F1140314
:101D500000221A605A609A60DA601A617B681B6818
:101D60001B4A93422FD100233B611A4B5B6C194AEB
:101D700043F480735364174B5B6C03F480733B61D3
:101D80003B690023FB60134B1B6B124A43F00103BA
:101D90001363104B1B6B03F00103FB60FB684023D4
:101DA0007B610323BB610023FB6107F11403194628
:101DB000094801F0B7F800220021122001F07BF859
:101DC000122001F094F800BF2837BD4680BD00BF47
:101DD00000200140003802400000024080B58AB077
:101DE00000AF786007F1140300221A605A609A600D
:101DF000DA601A617B681B68194A93422BD1002371
:101E00003B61184B1B6B174A43F002031363154BDE
:101E10001B6B03F002033B613B69C0237B61122310
:101E2000BB610023FB6103233B6204237B6207F158
:101E3000140319460C4801F075F80023FB60094BA8
:101E40001B6C084A43F400131364064B1B6C03F429
:101E50000013FB60FB6800BF2837BD4680BD00BF94
:101E600000540040003802400004024080B586B0B3
:101E700000AF78607B681B68264A93420ED100232E
:101E80007B61254B5B6C244A43F001035364224B76
:101E90005B6C03F001037B617B6936E07B681B6848
:101EA0001E4A934216D100233B611B4B1B6C1A4AFE
:101EB00043F010031364184B1B6C03F010033B61D9
:101EC0003B6900220021362000F0F5FF362001F0AA
:101ED0000EF81AE07B681B68114A934215D1002363
:101EE000FB600D4B1B6C0C4A43F0200313640A4B40
:101EF0001B6C03F02003FB60FB68002200213720ED
:101F000000F0D9FF372000F0F2FF00BF1837BD46C0
:101F100080BD00BF000001400038024000100040BA
:101F20000014004080B588B000AF786007F10C0362
:101F300000221A605A609A60DA601A617B681B6836
:101F4000124A93421ED10023BB60114B1B6B104AF7
:101F500043F0100313630E4B1B6B03F01003BB60C5
:101F6000BB684FF40073FB6002233B6100237B617D
:101F70000023BB610123FB6107F10C0319460548EF
:101F800000F0D0FF00BF2037BD4680BD00000140FB
:101F9000003802400010024080B400AF00BFFDE7EF
:101FA00080B400AF00BFFDE780B400AF00BFFDE725
:101FB00080B400AF00BFFDE780B400AF00BFFDE715
:101FC00080B400AF00BFBD465DF8047B704780B4AD
:101FD00000AF00BFBD465DF8047B704780B400AF22
:101FE00000BFBD465DF8047B704780B500AF00F0D0
:101FF0008BF900BF80BD80B500AF012001F060F912
:1020000000BF80BD80B500AF022001F059F900BFCC
:1020100080BD000080B500AF024800F018FB00BF93
:1020200080BD00BF0802002080B500AF402001F055
:1020300047F900BF80BD000080B500AF024802F044
:10204000F9FC00BF80BD00BFEC02002080B500AFEE
:10205000024802F0EFFC00BF80BD00BF3403002047
:1020600080B400AF01231846BD465DF8047B70477D
:1020700080B582B000AF7860396004F023F9034680
:1020800016221A604FF0FF3318460837BD4680BD50
:1020900080B582B000AF78604FF0FF317868FFF70D
:1020A000E7FF00BFFDE780B586B000AFF860B9601C
:1020B0007A6000237B610AE0AFF300800146BB68D1
:1020C0005A1CBA60CAB21A707B6901337B617A69A3
:1020D0007B689A42F0DB7B6818461837BD4680BDA6
:1020E00080B586B000AFF860B9607A6000237B618C
:1020F00009E0BB685A1CBA601B781846AFF3008031
:102100007B6901337B617A697B689A42F1DB7B688A
:1021100018461837BD4680BD80B483B000AF7860E4
:102120004FF0FF3318460C37BD465DF8047B70470F
:1021300080B483B000AF786039603B684FF40052E0
:102140005A60002318460C37BD465DF8047B704783
:1021500080B483B000AF7860012318460C37BD46C9
:102160005DF8047B704780B485B000AFF860B9605B
:102170007A60002318461437BD465DF8047B70472B
:1021800080B586B000AF7860144A154BD31A7B61D6
:102190007B693B61134B1B68002B02D1114B124A28
:1021A0001A60104B1A687B6813443A699A4207D246
:1021B00004F088F803460C221A604FF0FF3309E060
:1021C000084B1B68FB60074B1A687B681344054A81
:1021D0001360FB6818461837BD4680BD000002201A
:1021E000000400008C030020E004002080B400AF55
:1021F000064BD3F88830054A43F47003C2F88830A0
:1022000000BFBD465DF8047B704700BF00ED00E0F5
:10221000DFF834D0FFF7EAFF0C480D490D4A0023E0
:1022200002E0D458C4500433C4188C42F9D30A4A8B
:102230000A4C002301E013600432A242FBD304F0F5
:1022400047F8FFF709FA704700000220000000205D
:10225000E4010020F4840008E4010020E0040020F0
:10226000FEE7000080B500AF0E4B1B680D4A43F43B
:10227000007313600B4B1B680A4A43F480631360BE
:10228000084B1B68074A43F480731360032000F077
:1022900007FE0F2000F008F8FFF72CFD002318467A
:1022A00080BD00BF003C024080B582B000AF7860C6
:1022B000124B1A68124B1B7819464FF47A73B3FB12
:1022C000F1F3B2FBF3F3184600F01FFE0346002BB8
:1022D00001D001230EE07B680F2B0AD80022796819
:1022E0004FF0FF3000F0E7FD064A7B6813600023E3
:1022F00000E0012318460837BD4680BD10000020CD
:10230000180000201400002080B400AF064B1B789A
:102310001A46064B1B681344044A136000BFBD46AF
:102320005DF8047B704700BF180000209003002078
:1023300080B400AF034B1B681846BD465DF8047BB4
:10234000704700BF9003002080B584B000AF786074
:10235000FFF7EEFFB8607B68FB60FB68B3F1FF3FFF
:1023600005D00A4B1B781A46FB681344FB6000BF7C
:10237000FFF7DEFF0246BB68D31AFA689A42F7D825
:1023800000BF00BF1037BD4680BD00BF1800002051
:1023900080B584B000AF78600023FB737B68002BAE
:1023A00001D1012333E07B681B6C002B09D17868D5
:1023B000FFF7C8FC7B6800225A647B68002283F820
:1023C0003C207B681B6C03F01003002B18D17B684A
:1023D0001B6C23F4885323F0020343F002027B6852
:1023E0001A64786800F086FB7B6800225A647B6878
:1023F0001B6C23F0030343F001027B681A6401E0C5
:102400000123FB737B68002283F83C20FB7B18468A
:102410001037BD4680BD000080B485B000AF786045
:102420000023BB607B6893F83C30012B01D1022371
:10243000BDE07B68012283F83C207B681B689B68B9
:1024400003F00103012B18D07B681B689A687B6836
:102450001B6842F001029A60584B1B68584AA2FB65
:1024600003239A0C13465B001344BB6002E0BB6875
:10247000013BBB60BB68002BF9D17B681B689B6884
:1024800003F00103012B40F085807B681B6C23F473
:10249000E06323F0010343F480727B681A647B6875
:1024A0001B685B6803F48063002B07D07B681B6CA0
:1024B00023F4405343F480527B681A647B681B6C9E
:1024C00003F48053B3F5805F06D17B685B6C23F027
:1024D00006027B685A6402E07B6800225A647B68CB
:1024E000002283F83C20374BFB607B681B686FF051
:1024F00022021A607B681B685B687A68126843F086
:10250000806343F020035360FB685B6803F01F03A4
:10251000002B2AD17B681B682B4A934215D07B681D
:102520001B682A4A934205D1264B5B6803F01F03C0
:10253000002B0AD07B681B68254A934236D1214B79
:102540005B6803F01003002B30D17B681B689B682D
:1025500003F04053002B29D17B681B689A687B6885
:102560001B6842F080429A6020E07B681B68164A34
:1025700093421BD17B681B689B6803F04053002B80
:1025800014D17B681B689A687B681B6842F08042A4
:102590009A600BE07B681B6C43F010027B681A6446
:1025A0007B685B6C43F001027B685A640023184629
:1025B0001437BD465DF8047B704700BF1000002053
:1025C00083DE1B4300230140002001400021014025
:1025D0000022014080B483B000AF78607B6893F83C
:1025E0003C30012B01D102232BE07B68012283F8D0
:1025F0003C207B681B689A687B681B6822F001029C
:102600009A607B681B689B6803F00103002B13D161
:102610007B681B685B687A68126823F0806323F02C
:10262000200353607B681B6C23F4885323F0010361
:1026300043F001027B681A647B68002283F83C2027
:10264000002318460C37BD465DF8047B704780B503
:1026500086B000AF786000237B6100233B617B681C
:102660001B681B68FB607B681B685B68BB60FB6862
:1026700003F002037B61BB6803F020033B617B69CD
:10268000002B49D03B69002B46D07B681B6C03F0C4
:102690001003002B05D17B681B6C43F400727B6830
:1026A0001A647B681B689B6803F04053002B2BD196
:1026B0007B681B7E002B27D17B681B68DB6A03F4D9
:1026C0007003002B06D07B681B689B6803F4806353
:1026D000002B19D17B681B685A687B681B6822F045
:1026E00020025A607B681B6C23F480727B681A643A
:1026F0007B681B6C03F48053002B05D17B681B6C3B
:1027000043F001027B681A647868FEF733FF7B6848
:102710001B686FF012021A60FB6803F004037B6110
:10272000BB6803F080033B617B69002B57D03B699A
:10273000002B54D07B681B6C03F01003002B05D1D9
:102740007B681B6C43F400527B681A647B681B68CF
:102750009B6803F44013002B39D17B681B689B6B8B
:1027600003F44013002B06D07B681B689B6803F4BE
:102770008063002B2BD17B681B685B6803F480634C
:10278000002B24D17B681B689B6803F04053002B0F
:102790001DD17B681B7E002B19D17B681B685A6892
:1027A0007B681B6822F080025A607B681B6C23F4F4
:1027B00080527B681A647B681B6C03F48073002B67
:1027C00005D17B681B6C43F001027B681A64786852
:1027D00000F08CFA7B681B686FF00C021A60FB68D3
:1027E00003F001037B61BB6803F040033B617B693D
:1027F000002B17D03B69002B14D07B681B681B682B
:1028000003F00103012B0DD17B681B6C43F4803274
:102810007B681A64786800F037F87B681B686FF093
:1028200001021A60FB6803F020037B61BB6803F0C0
:1028300080633B617B69002B15D03B69002B12D074
:102840007B685B6C43F002027B685A647B681B68A0
:102850006FF020021A60786800F020F87B681B682F
:102860006FF020021A6000BF1837BD4680BD80B4EB
:1028700083B000AF78607B681B68DB6C18460C3750
:10288000BD465DF8047B704780B483B000AF7860CC
:1028900000BF0C37BD465DF8047B704780B483B041
:1028A00000AF786000BF0C37BD465DF8047B704711
:1028B00080B485B000AF786039600023BB607B686E
:1028C00093F83C30012B01D1022305E17B68012202
:1028D00083F83C203B681B68092B25D97B681B6863
:1028E000D9683B681B689BB21A4613465B001344C9
:1028F0001E3B072202FA03F3DA437B681B680A4097
:10290000DA607B681B68D9683B689A683B681B681B
:102910009BB2184603465B0003441E3B9A407B680B
:102920001B680A43DA6022E07B681B6819693B6810
:102930001B689BB21A4613465B001344072202FA37
:1029400003F3DA437B681B680A401A617B681B68E3
:1029500019693B689A683B681B689BB21846034636
:102960005B0003449A407B681B680A431A613B681A
:102970005B68062B24D87B681B68596B3B685A68D8
:1029800013469B001344053B1F2202FA03F3DA436C
:102990007B681B680A405A637B681B68596B3B68FD
:1029A0001B689BB218463B685A6813469B00134449
:1029B000053B00FA03F27B681B680A435A634CE04C
:1029C0003B685B680C2B24D87B681B68196B3B68E1
:1029D0005A6813469B001344233B1F2202FA03F359
:1029E000DA437B681B680A401A637B681B68196BB3
:1029F0003B681B689BB218463B685A6813469B00AD
:102A00001344233B00FA03F27B681B680A431A63F2
:102A100023E07B681B68D96A3B685A6813469B00B1
:102A20001344413B1F2202FA03F3DA437B681B681D
:102A30000A40DA627B681B68D96A3B681B689BB2F4
:102A400018463B685A6813469B001344413B00FA02
:102A500003F27B681B680A43DA62224BFB607B68E7
:102A60001B68214A934209D13B681B68122B05D190
:102A7000FB685B6843F48002FB685A607B681B68F4
:102A8000194A934223D13B681B68102B03D03B6843
:102A90001B68112B1BD1FB685B6843F40002FB68C9
:102AA0005A603B681B68102B11D1104B1B68104AF1
:102AB000A2FB03239A0C13469B0013445B00BB60EC
:102AC00002E0BB68013BBB60BB68002BF9D17B68AF
:102AD000002283F83C20002318461437BD465DF8D9
:102AE000047B7047002301400020014010000020BB
:102AF00083DE1B4380B485B000AF7860794BFB6008
:102B0000FB685B6823F44032FB685A60FB685A68D4
:102B10007B685B681A43FB685A607B681B685A686D
:102B20007B681B6822F480725A607B681B68596856
:102B30007B681B691A027B681B680A435A607B68C2
:102B40001B685A687B681B6822F040725A607B6879
:102B50001B6859687B689A687B681B680A435A60DF
:102B60007B681B689A687B681B6822F400629A6025
:102B70007B681B6899687B68DA687B681B680A4316
:102B80009A607B689B6A584A934222D07B681B6894
:102B90009A687B681B6822F070629A607B681B6889
:102BA00099687B689A6A7B681B680A439A607B68AD
:102BB0001B689A687B681B6822F040529A607B68A9
:102BC0001B6899687B68DA6A7B681B680A439A60AD
:102BD0000FE07B681B689A687B681B6822F0706254
:102BE0009A607B681B689A687B681B6822F0405279
:102BF0009A607B681B689A687B681B6822F00202F7
:102C00009A607B681B6899687B681B7E5A007B68AA
:102C10001B680A439A607B6893F82030002B1BD016
:102C20007B681B685A687B681B6842F400625A60C4
:102C30007B681B685A687B681B6822F460425A6094
:102C40007B681B6859687B685B6A013B5A037B6839
:102C50001B680A435A6007E07B681B685A687B68F8
:102C60001B6822F400625A607B681B68DA6A7B6822
:102C70001B6822F47002DA627B681B68D96A7B6881
:102C8000DB69013B1A057B681B680A43DA627B68D3
:102C90001B689A687B681B6822F400729A607B68E4
:102CA0001B6899687B6893F830305A027B681B6810
:102CB0000A439A607B681B689A687B681B6822F4E9
:102CC00080629A607B681B6899687B685B699A027E
:102CD0007B681B680A439A6000BF1437BD465DF8E5
:102CE000047B7047002301400100000F80B483B0D3
:102CF00000AF786000BF0C37BD465DF8047B7047BD
:102D000080B485B000AF78607B6803F00703FB6098
:102D10000C4BDB68BB60BA684FF6FF031340BB6027
:102D2000FB681A02BB68134343F0BF6343F40033EC
:102D3000BB60044ABB68D36000BF1437BD465DF872
:102D4000047B704700ED00E080B400AF044BDB680B
:102D50001B0A03F007031846BD465DF8047B704765
:102D600000ED00E080B483B000AF0346FB7197F93B
:102D70000730002B0BDBFB7903F01F02074997F9A3
:102D800007305B09012000FA02F241F8232000BF5E
:102D90000C37BD465DF8047B704700BF00E100E0E2
:102DA00080B483B000AF03463960FB7197F90730F8
:102DB000002B0ADB3B68DAB20C4997F907301201A5
:102DC000D2B20B4483F800230AE03B68DAB2084928
:102DD000FB7903F00F03043B1201D2B20B441A76C5
:102DE00000BF0C37BD465DF8047B704700E100E092
:102DF00000ED00E080B489B000AFF860B9607A609F
:102E0000FB6803F00703FB61FB69C3F10703042BB5
:102E100028BF0423BB61FB690433062B02D9FB697D
:102E2000033B00E000237B614FF0FF32BB6902FAF5
:102E300003F3DA43BB681A407B699A404FF0FF31D5
:102E40007B6901FA03F3D9437B680B4013431846AF
:102E50002437BD465DF8047B7047000080B582B022
:102E600000AF78607B68013BB3F1807F01D3012321
:102E70000FE00A4A7B68013B53600F214FF0FF309F
:102E8000FFF78EFF054B00229A60044B07221A6061
:102E9000002318460837BD4680BD00BF10E000E0A3
:102EA00080B582B000AF78607868FFF729FF00BF77
:102EB0000837BD4680BD80B586B000AF0346B96017
:102EC0007A60FB7300237B61FFF73EFF78617A68CD
:102ED000B9687869FFF78EFF024697F90F301146FF
:102EE0001846FFF75DFF00BF1837BD4680BD80B5AF
:102EF00082B000AF0346FB7197F907301846FFF721
:102F000031FF00BF0837BD4680BD80B582B000AF3D
:102F100078607868FFF7A2FF034618460837BD4679
:102F200080BD000080B489B000AF786039600023B4
:102F30007B6100233B610023BB610023FB616BE1EC
:102F40000122FB6902FA03F37B613B681B687A6923
:102F500013403B613A697B699A4240F05A813B6871
:102F60005B6803F00303012B05D03B685B6803F04B
:102F70000303022B30D17B689B68BB61FB695B005C
:102F8000032202FA03F3DB43BA691340BB613B68D7
:102F9000DA68FB695B0002FA03F3BA691343BB61A9
:102FA0007B68BA699A607B685B68BB610122FB69D8
:102FB00002FA03F3DB43BA691340BB613B685B6809
:102FC0001B0903F00102FB6902FA03F3BA69134318
:102FD000BB617B68BA695A603B685B6803F00303B6
:102FE000032B17D07B68DB68BB61FB695B000322A6
:102FF00002FA03F3DB43BA691340BB613B689A688A
:10300000FB695B0002FA03F3BA691343BB617B6897
:10301000BA69DA603B685B6803F00303022B23D1D3
:10302000FB69DA087B68083253F82230BB61FB6920
:1030300003F007039B000F2202FA03F3DB43BA6994
:103040001340BB613B681A69FB6903F007039B00EF
:1030500002FA03F3BA691343BB61FB69DA087B68C0
:103060000832B96943F822107B681B68BB61FB69B1
:103070005B00032202FA03F3DB43BA691340BB612E
:103080003B685B6803F00302FB695B0002FA03F331
:10309000BA691343BB617B68BA691A603B685B68B5
:1030A00003F44033002B00F0B4800023FB60604B3E
:1030B0005B6C5F4A43F4804353645D4B5B6C03F489
:1030C0008043FB60FB685B4AFB699B08023352F854
:1030D0002330BB61FB6903F003039B000F2202FA5C
:1030E00003F3DB43BA691340BB617B68524A9342E6
:1030F0002BD07B68514A934225D07B68504A93423B
:103100001FD07B684F4A934219D07B684E4A934246
:1031100013D07B684D4A93420DD07B684C4A934252
:1031200007D07B684B4A934201D107230EE0082366
:103130000CE006230AE0052308E0042306E003234D
:1031400004E0022302E0012300E00023FA6902F018
:10315000030292009340BA691343BB613549FB698E
:103160009B080233BA6941F823203B4B9B68BB6143
:103170003B69DB43BA691340BB613B685B6803F49E
:103180008013002B03D0BA693B691343BB61324AF9
:10319000BB699360304BDB68BB613B69DB43BA6959
:1031A0001340BB613B685B6803F40013002B03D042
:1031B000BA693B691343BB61274ABB69D360264B9D
:1031C0005B68BB613B69DB43BA691340BB613B6829
:1031D0005B6803F40033002B03D0BA693B691343E7
:1031E000BB611D4ABB6953601B4B1B68BB613B69DC
:1031F000DB43BA691340BB613B685B6803F480330F
:10320000002B03D0BA693B691343BB61124ABB6907
:103210001360FB690133FB61FB690F2B7FF690AEF6
:1032200000BF00BF2437BD465DF8047B704700BF78
:103230000038024000380140000002400004024013
:1032400000080240000C024000100240001402403E
:1032500000180240001C0240003C014080B485B0D0
:1032600000AF78600B467B807B681A697B881340CF
:10327000002B02D00123FB7301E00023FB73FB7BD7
:1032800018461437BD465DF8047B704780B483B0A0
:1032900000AF78600B467B8013467B707B78002BF9
:1032A00003D07A887B689A6103E07B881A047B6884
:1032B0009A6100BF0C37BD465DF8047B7047000083
:1032C00080B582B000AF0346FB80084B5A69FB888B
:1032D0001340002B06D0054AFB885361FB88184633
:1032E000FDF7F4FF00BF0837BD4680BD003C01403C
:1032F00080B584B000AF78607B68002B01D10123DA
:103300002BE17B6893F83D30DBB2002B06D17B6864
:10331000002283F83C207868FEF760FD7B68242259
:1033200083F83D207B681B681A687B681B6822F065
:1033300001021A607B681B681A687B681B6842F48C
:1033400000421A607B681B681A687B681B6822F45D
:1033500000421A6001F0DAF8F8607B685B68814A25
:10336000934207D8FB68804A934294BF012300230D
:10337000DBB206E0FB687D4A934294BF0123002341
:10338000DBB2002B01D00123E7E0FB68784AA2FB07
:1033900003239B0CBB607B681B685B6823F03F01C9
:1033A0007B681B68BA680A435A607B681B681B6AA3
:1033B00023F03F017B685B686A4A934202D8BB688E
:1033C000013309E0BB684FF4967202FB03F3694ACC
:1033D000A2FB03239B0901337A6812680B43136233
:1033E0007B681B68DB6923F44F4222F0FF027B6895
:1033F0005B685C498B4219D8FB68591E7B685B6827
:103400005B00B1FBF3F3591C40F6FC730B40002B3F
:103410000AD0FB68591E7B685B685B00B1FBF3F365
:103420000133C3F30B0351E004234FE07B689B6837
:10343000002B11D1FB68581E7B6859680B465B0056
:103440000B44B0FBF3F30133C3F30B03002B0CBFAE
:1034500001230023DBB212E0FB68581E7B68596829
:103460000B469B000B4499000B44B0FBF3F3013374
:10347000C3F30B03002B0CBF01230023DBB2002B93
:1034800001D0012322E07B689B68002B0ED1FB68F2
:10349000581E7B6859680B465B000B44B0FBF3F386
:1034A0000133C3F30B0343F400430FE0FB68581EE2
:1034B0007B6859680B469B000B4499000B44B0FB9A
:1034C000F3F30133C3F30B0343F440437968096812
:1034D0001343CB617B681B681B6823F0C0017B68CA
:1034E000DA697B681B6A1A437B681B680A431A60A7
:1034F0007B681B689B6823F4034323F0FF037A680F
:1035000011697A68D26811437A6812680B43936034
:103510007B681B68DB6823F0FF017B685A697B6866
:103520009B691A437B681B680A43DA607B681B68E7
:103530001A687B681B6842F001021A607B680022EF
:103540001A647B68202283F83D207B6800221A637E
:103550007B68002283F83E20002318461037BD46C2
:1035600080BD00BFA08601007F841E00FF083D00D3
:1035700083DE1B43D34D621080B588B002AFF86084
:103580007A601A460B467B8113463B81FEF7D0FEDC
:103590007861FB6893F83D30DBB2202B40F0E0808F
:1035A0007B690093192301227049F86800F064F9DF
:1035B0000346002B01D00223D3E0FB6893F83C3094
:1035C000012B01D10223CCE0FB68012283F83C20CF
:1035D000FB681B681B6803F00103012B07D0FB6825
:1035E0001B681A68FB681B6842F001021A60FB68DE
:1035F0001B681A68FB681B6822F400621A60FB688B
:10360000212283F83D20FB68102283F83E20FB68CE
:1036100000221A64FB687A685A62FB683A895A8504
:10362000FB685B8D9AB2FB681A85FB68504ADA62C8
:1036300079897B693A6AF86800F09CF80346002BA8
:1036400001D001238DE000233B61FB681B685B69AF
:103650003B61FB681B689B693B613B6966E07A697B
:10366000396AF86800F022FA0346002B0DD0FB6897
:103670001B6C042B07D1FB681B681A68FB681B686E
:1036800042F400721A6001236BE0FB685B6A1A78EF
:10369000FB681B681A61FB685B6A5A1CFB685A620C
:1036A000FB685B8D9BB2013B9AB2FB685A85FB6855
:1036B0001B8D013B9AB2FB681A85FB681B685B692E
:1036C00003F00403042B1BD1FB681B8D002B17D0C8
:1036D000FB685B6A1A78FB681B681A61FB685B6AA7
:1036E0005A1CFB685A62FB685B8D9BB2013B9AB225
:1036F000FB685A85FB681B8D013B9AB2FB681A85F3
:103700007A69396AF86800F019FA0346002B0DD07F
:10371000FB681B6C042B07D1FB681B681A68FB68ED
:103720001B6842F400721A6001231AE0FB681B8DCB
:10373000002B94D1FB681B681A68FB681B6842F475
:1037400000721A60FB68202283F83D20FB6800228B
:1037500083F83E20FB68002283F83C20002300E031
:10376000022318461837BD4680BD00BF0200100076
:103770000000FFFF80B588B002AFF8607A603B6060
:103780000B467B81FB68DB6A7B617B69082B06D07B
:103790007B69012B03D07B6913F5803F08D1FB685F
:1037A0001B681A68FB681B6842F480721A600BE0A1
:1037B000FB681B6B122B07D1FB681B681A68FB6840
:1037C0001B6842F480721A603B6800937B68002299
:1037D0004FF00111F86800F04FF80346002B0DD0B0
:1037E000FB681B681B6803F48073B3F5807F03D10B
:1037F000FB684FF400721A64032335E0FB681B6911
:10380000B3F5804F08D17B89DBB21A46FB681B6891
:1038100002F0FE021A611BE07B89DB11DBB203F0D0
:103820000603DBB263F00F03DAB2FB681B681A61B0
:103830003B687A680E49F86800F098F80346002B58
:1038400001D0012310E07B89DAB2FB681B681A61A2
:103850003B687A680749F86800F088F80346002B4F
:1038600001D0012300E0002318461837BD4680BD73
:10387000080001000200010080B584B000AFF860CC
:10388000B9603B601346FB7148E03B68B3F1FF3F12
:1038900044D0FEF74DFD0246BB69D31A3A689A42FE
:1038A00002D33B68002B39D1BB681B0CDBB2012B68
:1038B0000DD1FB681B685B69DA43BB6813409BB2A0
:1038C000002B0CBF01230023DBB21A460CE0FB687F
:1038D0001B689B69DA43BB6813409BB2002B0CBF8B
:1038E00001230023DBB21A46FB799A4216D1FB680A
:1038F00000221A63FB68202283F83D20FB68002227
:1039000083F83E20FB681B6C43F02002FB681A64BE
:10391000FB68002283F83C20012323E0BB681B0CDA
:10392000DBB2012B0DD1FB681B685B69DA43BB6816
:1039300013409BB2002B0CBF01230023DBB21A46BD
:103940000CE0FB681B689B69DA43BB6813409BB2C1
:10395000002B0CBF01230023DBB21A46FB799A42ED
:1039600093D0002318461037BD4680BD80B584B083
:1039700000AFF860B9607A603B6071E0FB681B687B
:103980005B6903F48063B3F5806F23D1FB681B6828
:103990001A68FB681B6842F400721A60FB681B68B7
:1039A0006FF480625A61FB6800221A63FB68202270
:1039B00083F83D20FB68002283F83E20FB681B6CE7
:1039C00043F00402FB681A64FB68002283F83C2081
:1039D000012367E07B68B3F1FF3F41D0FEF7A8FC0D
:1039E00002463B68D31A7A689A4202D37B68002B5E
:1039F00036D1BB681B0CDBB2012B0CD1FB681B68FA
:103A00005B69DA43BB6813409BB2002B14BF0123F0
:103A10000023DBB20BE0FB681B689B69DA43BB68E1
:103A200013409BB2002B14BF01230023DBB2002BF9
:103A300016D0FB6800221A63FB68202283F83D2021
:103A4000FB68002283F83E20FB681B6C43F02002D9
:103A5000FB681A64FB68002283F83C20012321E004
:103A6000BB681B0CDBB2012B0CD1FB681B685B69CC
:103A7000DA43BB6813409BB2002B14BF0123002321
:103A8000DBB20BE0FB681B689B69DA43BB68134041
:103A90009BB2002B14BF01230023DBB2002B7FF469
:103AA0006DAF002318461037BD4680BD80B584B089
:103AB00000AFF860B9607A6034E0F86800F086F82A
:103AC0000346002B01D0012334E0BB68B3F1FF3F74
:103AD00028D0FEF72DFC02467B68D31ABA689A42BA
:103AE00002D3BB68002B1DD1FB681B685B6903F028
:103AF0008003802B16D0FB6800221A63FB6820220B
:103B000083F83D20FB68002283F83E20FB681B6C95
:103B100043F02002FB681A64FB68002283F83C2013
:103B2000012307E0FB681B685B6903F08003802BBF
:103B3000C3D1002318461037BD4680BD80B584B080
:103B400000AFF860B9607A6034E0F86800F03EF8E1
:103B50000346002B01D0012334E0BB68B3F1FF3FE3
:103B600028D0FEF7E5FB02467B68D31ABA689A4272
:103B700002D3BB68002B1DD1FB681B685B6903F097
:103B80000403042B16D0FB6800221A63FB68202272
:103B900083F83D20FB68002283F83E20FB681B6C05
:103BA00043F02002FB681A64FB68002283F83C2083
:103BB000012307E0FB681B685B6903F00403042B27
:103BC000C3D1002318461037BD4680BD80B483B0F2
:103BD00000AF78607B681B685B6903F48063B3F5B2
:103BE000806F1BD17B681B686FF480625A617B68B1
:103BF00000221A637B68202283F83D207B68002224
:103C000083F83E207B681B6C43F004027B681A64D7
:103C10007B68002283F83C20012300E00023184643
:103C20000C37BD465DF8047B7047000080B586B058
:103C300000AF78607B68002B01D1012367E27B68CD
:103C40001B6803F00103002B75D0884B9B6803F0C1
:103C50000C03042B0CD0854B9B6803F00C03082B42
:103C600012D1824B5B6803F48003B3F5800F0BD154
:103C70007E4B1B6803F40033002B5BD07B685B68D2
:103C8000002B57D1012342E27B685B68B3F5803F8C
:103C900006D1764B1B68754A43F4803313601DE0F0
:103CA0007B685B68B3F5A02F0CD1704B1B686F4A23
:103CB00043F4802313606D4B1B686C4A43F48033DC
:103CC00013600BE0694B1B68684A23F48033136070
:103CD000664B1B68654A23F4802313607B685B682E
:103CE000002B13D0FEF724FB386108E0FEF720FB21
:103CF00002463B69D31A642B01D9032307E25B4BCD
:103D00001B6803F40033002BF0D014E0FEF710FB27
:103D1000386108E0FEF70CFB02463B69D31A642BBE
:103D200001D90323F3E1514B1B6803F40033002B4B
:103D3000F0D100E000BF7B681B6803F00203002B9A
:103D400063D04A4B9B6803F00C03002B0BD0474B0E
:103D50009B6803F00C03082B1CD1444B5B6803F4F5
:103D60008003002B16D1414B1B6803F00203002B8C
:103D700005D07B68DB68012B01D00123C7E13B4BF9
:103D80001B6823F0F8027B681B69DB00374913438B
:103D90000B603AE07B68DB68002B20D0344B0122BB
:103DA0001A60FEF7C5FA386108E0FEF7C1FA02466C
:103DB0003B69D31A022B01D90323A8E12B4B1B68C3
:103DC00003F00203002BF0D0284B1B6823F0F8020D
:103DD0007B681B69DB00254913430B6015E0244B0E
:103DE00000221A60FEF7A4FA386108E0FEF7A0FA94
:103DF00002463B69D31A022B01D9032387E11B4BEF
:103E00001B6803F00203002BF0D17B681B6803F0F2
:103E10000803002B36D07B685B69002B16D0154B4E
:103E200001221A60FEF784FA386108E0FEF780FA92
:103E300002463B69D31A022B01D9032367E10B4BDE
:103E40005B6F03F00203002BF0D01BE0094B002254
:103E50001A60FEF76DFA38610EE0FEF769FA024665
:103E60003B69D31A022B07D9032350E100380240E3
:103E700000004742800E4742884B5B6F03F002030D
:103E8000002BEAD17B681B6803F00403002B00F0D1
:103E900097800023FB75814B1B6C03F08053002B34
:103EA0000FD10023BB607D4B1B6C7C4A43F08053D9
:103EB00013647A4B1B6C03F08053BB60BB68012317
:103EC000FB75774B1B6803F48073002B18D1744B80
:103ED0001B68734A43F480731360FEF729FA386154
:103EE00008E0FEF725FA02463B69D31A022B01D9F6
:103EF00003230CE16A4B1B6803F48073002BF0D0A2
:103F00007B689B68012B06D1644B1B6F634A43F0AF
:103F1000010313671CE07B689B68052B0CD15F4B8A
:103F20001B6F5E4A43F0040313675C4B1B6F5B4AD5
:103F300043F0010313670BE0584B1B6F574A23F004
:103F400001031367554B1B6F544A23F00403136797
:103F50007B689B68002B15D0FEF7EAF938610AE010
:103F6000FEF7E6F902463B69D31A41F288329342E2
:103F700001D90323CBE0494B1B6F03F00203002B55
:103F8000EED014E0FEF7D4F938610AE0FEF7D0F97C
:103F900002463B69D31A41F28832934201D9032386
:103FA000B5E03E4B1B6F03F00203002BEED1FB7D0F
:103FB000012B05D1394B1B6C384A23F08053136415
:103FC0007B689B69002B00F0A180344B9B6803F059
:103FD0000C03082B5CD07B689B69022B41D1314BD1
:103FE00000221A60FEF7A4F9386108E0FEF7A0F994
:103FF00002463B69D31A022B01D9032387E0274BE2
:104000001B6803F00073002BF0D17B68DA697B68D2
:104010001B6A1A437B685B6A9B011A437B689B6A35
:104020005B08013B1B041A437B68DB6A1B061B49C8
:1040300013434B601B4B01221A60FEF779F938617C
:1040400008E0FEF775F902463B69D31A022B01D945
:1040500003235CE0114B1B6803F00073002BF0D0CE
:1040600054E0104B00221A60FEF762F9386108E054
:10407000FEF75EF902463B69D31A022B01D90323EE
:1040800045E0064B1B6803F00073002BF0D13DE0C8
:104090007B689B69012B07D1012338E0003802407F
:1040A00000700040600047421B4B5B68FB607B6810
:1040B0009B69012B28D0FB6803F480027B68DB69D5
:1040C0009A4221D1FB6803F03F027B681B6A9A4247
:1040D0001AD1FA6847F6C07313407A68526A92019F
:1040E000934211D1FB6803F440327B689B6A5B0802
:1040F000013B1B049A4207D1FB6803F070627B68A6
:10410000DB6A1B069A4201D0012300E00023184617
:104110001837BD4680BD00BF0038024080B584B06E
:1041200000AF786039607B68002B01D10123CCE0BF
:10413000684B1B6803F007033A689A420CD9654B39
:104140003A68D2B21A70634B1B6803F007033A68EF
:104150009A4201D00123B8E07B681B6803F0020398
:10416000002B20D07B681B6803F00403002B05D0D4
:10417000594B9B68584A43F4E05393607B681B6833
:1041800003F00803002B05D0534B9B68524A43F4BD
:1041900060439360504B9B6823F0F0027B689B6800
:1041A0004D4913438B607B681B6803F00103002BB0
:1041B00044D07B685B68012B07D1474B1B6803F435
:1041C0000033002B19D101237FE07B685B68022B51
:1041D00003D07B685B68032B07D13F4B1B6803F060
:1041E0000073002B09D101236FE03B4B1B6803F0E8
:1041F0000203002B01D1012367E0374B9B6823F0BA
:1042000003027B685B68344913438B60FEF790F8C8
:10421000F8600AE0FEF78CF80246FB68D31A41F218
:104220008832934201D903234FE02B4B9B6803F064
:104230000C027B685B689B009A42EBD1254B1B68A4
:1042400003F007033A689A420CD2224B3A68D2B282
:104250001A70204B1B6803F007033A689A4201D09A
:10426000012332E07B681B6803F00403002B08D0B5
:10427000194B9B6823F4E0527B68DB6816491343B3
:104280008B607B681B6803F00803002B09D0124B7E
:104290009B6823F460427B681B69DB000E49134373
:1042A0008B6000F021F802460B4B9B681B0903F062
:1042B0000F030A49CB5C22FA03F3094A1360094B46
:1042C0001B681846FDF7F0FF002318461037BD465F
:1042D00080BD00BF003C0240003802405881000809
:1042E00010000020140000202DE9B04F94B000AF62
:1042F00000237B640023FB6400233B640023BB6436
:10430000794B9B6803F00C03082B0DD0082B00F2AF
:10431000E180002B02D0042B03D0DBE0734BBB64A5
:10432000DBE0734BBB64D8E06F4B5B6803F03F038B
:104330007B646D4B5B6803F48003002B63D06A4B96
:104340005B689B090022BB63FA63BB6BC3F3080382
:104350003B6300237B63D7E90C4522462B464FF095
:1043600000004FF00001590141EAD26150010246BC
:104370000B462146511A3961294663EB01037B61E3
:104380004FF000024FF00003D7E904AB59468B0110
:10439000514643EA916351468A015146B2EB010806
:1043A000594663EB01094FF000024FF000034FEA5A
:1043B000C90343EA58734FEAC80290469946234618
:1043C00018EB0303BB602B4649EB0303FB604FF084
:1043D00000024FF00003D7E9024529464B0221466F
:1043E00043EAD15321464A02104619467B6C00220B
:1043F000BB62FA62D7E90A23FCF7D6FB02460B46FA
:104400001346FB6458E0384B5B689B090022184652
:104410001146C0F308033B6200237B62D7E9088999
:1044200042464B464FF000004FF00001590141EA6F
:10443000D261500102460B464146B2EB010A4946A1
:1044400063EB010B4FF000024FF000034FEA8B13B8
:1044500043EA9A634FEA8A12B2EB0A0463EB0B0554
:104460004FF000024FF00003EB0043EA5473E20008
:1044700014461D464346E3183B604B4645EB030399
:104480007B604FF000024FF00003D7E9004529465A
:104490008B02214643EA915321468A02104619466F
:1044A0007B6C0022BB61FA61D7E90623FCF77CFB39
:1044B00002460B461346FB640B4B5B681B0C03F078
:1044C000030301335B003B64FA6C3B6CB2FBF3F318
:1044D000BB6402E0054BBB6400BFBB6C18465037A1
:1044E000BD46BDE8B08F00BF003802400024F40094
:1044F00000127A0080B400AF034B1B681846BD461B
:104500005DF8047B704700BF1000002080B500AF4D
:10451000FFF7F0FF0246054B9B689B0A03F0070379
:104520000349CB5C22FA03F3184680BD00380240F1
:104530006881000880B582B000AF78607B68002B8E
:1045400001D1012341E07B6893F83D30DBB2002BC1
:1045500006D17B68002283F83C207868FDF786FC52
:104560007B68022283F83D207B681A687B680433ED
:104570001946104600F000FD7B68012283F84620B2
:104580007B68012283F83E207B68012283F83F206C
:104590007B68012283F840207B68012283F8412058
:1045A0007B68012283F842207B68012283F8432044
:1045B0007B68012283F844207B68012283F8452030
:1045C0007B68012283F83D20002318460837BD464A
:1045D00080BD000080B485B000AF78607B6893F840
:1045E0003D30DBB2012B01D001234EE07B6802227B
:1045F00083F83D207B681B68DA687B681B6842F0A3
:104600000102DA607B681B68234A934222D07B68F0
:104610001B68B3F1804F1DD07B681B681F4A934213
:1046200018D07B681B681E4A934213D07B681B68B6
:104630001C4A93420ED07B681B681B4A934209D0E8
:104640007B681B68194A934204D07B681B68184A30
:10465000934211D17B681B689B6803F00703FB60E2
:10466000FB68062B10D07B681B681A687B681B6888
:1046700042F001021A6007E07B681B681A687B68D9
:104680001B6842F001021A60002318461437BD4629
:104690005DF8047B704700BF00000140000400404B
:1046A00000080040000C00400004014000400140B0
:1046B0000018004080B483B000AF78607B681B684E
:1046C000DA687B681B6822F00102DA607B681B688D
:1046D0001A6A41F211131340002B0FD17B681B683B
:1046E0001A6A40F244431340002B07D17B681B68D1
:1046F0001A687B681B6822F001021A607B6801223D
:1047000083F83D20002318460C37BD465DF8047B36
:10471000704780B582B000AF78607B68002B01D114
:10472000012341E07B6893F83D30DBB2002B06D1DA
:104730007B68002283F83C20786800F039F87B68B9
:10474000022283F83D207B681A687B68043319468F
:10475000104600F011FC7B68012283F846207B683C
:10476000012283F83E207B68012283F83F207B688A
:10477000012283F840207B68012283F841207B6876
:10478000012283F842207B68012283F843207B6862
:10479000012283F844207B68012283F845207B684E
:1047A000012283F83D20002318460837BD4680BD0E
:1047B00080B483B000AF786000BF0C37BD465DF8B1
:1047C000047B704780B584B000AF786039603B6887
:1047D000002B09D17B6893F83E30DBB2012B14BF6C
:1047E00001230023DBB222E03B68042B09D17B6864
:1047F00093F83F30DBB2012B14BF01230023DBB25F
:1048000015E03B68082B09D17B6893F84030DBB298
:10481000012B14BF01230023DBB208E07B6893F86F
:104820004130DBB2012B14BF01230023DBB2002B8C
:1048300001D001237CE03B68002B04D17B6802227D
:1048400083F83E2013E03B68042B04D17B680222EE
:1048500083F83F200BE03B68082B04D17B680222E1
:1048600083F8402003E07B68022283F841207B68C4
:104870001B6801223968184600F06EFE7B681B68D1
:104880002D4A934204D07B681B682C4A934201D185
:10489000012300E00023002B07D07B681B685A6CC3
:1048A0007B681B6842F400425A647B681B68224A9A
:1048B000934222D07B681B68B3F1804F1DD07B6888
:1048C0001B681F4A934218D07B681B681D4A93429D
:1048D00013D07B681B681C4A93420ED07B681B6810
:1048E000164A934209D07B681B68184A934204D049
:1048F0007B681B68164A934211D17B681B689B68D2
:1049000003F00703FB60FB68062B10D07B681B6875
:104910001A687B681B6842F001021A6007E07B6836
:104920001B681A687B681B6842F001021A6000234A
:1049300018461037BD4680BD00000140000401400C
:104940000004004000080040000C0040004001400E
:104950000018004080B582B000AF786039607B6895
:104960001B6800223968184600F0F6FD7B681B685A
:104970002E4A934204D07B681B682D4A934201D192
:10498000012300E00023002B17D07B681B681A6A04
:1049900041F211131340002B0FD17B681B681A6A78
:1049A00040F244431340002B07D17B681B685A6CCC
:1049B0007B681B6822F400425A647B681B681A6A91
:1049C00041F211131340002B0FD17B681B681A6A48
:1049D00040F244431340002B07D17B681B681A68E0
:1049E0007B681B6822F001021A603B68002B04D12F
:1049F0007B68012283F83E2013E03B68042B04D13E
:104A00007B68012283F83F200BE03B68082B04D130
:104A10007B68012283F8402003E07B68012283F851
:104A20004120002318460837BD4680BD00000140E4
:104A30000004014080B584B000AF78607B681B68DB
:104A4000DB68FB607B681B681B69BB60BB6803F0AD
:104A50000203002B20D0FB6803F00203002B1BD0C5
:104A60007B681B686FF002021A617B6801221A776B
:104A70007B681B689B6903F00303002B03D07868F5
:104A800000F05BFA05E0786800F04DFA786800F015
:104A90005EFA7B6800221A77BB6803F00403002BE0
:104AA00020D0FB6803F00403002B1BD07B681B683D
:104AB0006FF004021A617B6802221A777B681B6818
:104AC0009B6903F44073002B03D0786800F035FA3B
:104AD00005E0786800F027FA786800F038FA7B681B
:104AE00000221A77BB6803F00803002B20D0FB6874
:104AF00003F00803002B1BD07B681B686FF00802D3
:104B00001A617B6804221A777B681B68DB6903F0F3
:104B10000303002B03D0786800F00FFA05E07868F3
:104B200000F001FA786800F012FA7B6800221A7728
:104B3000BB6803F01003002B20D0FB6803F01003C8
:104B4000002B1BD07B681B686FF010021A617B681A
:104B500008221A777B681B68DB6903F44073002B1B
:104B600003D0786800F0E9F905E0786800F0DBF937
:104B7000786800F0ECF97B6800221A77BB6803F0D4
:104B80000103002B0CD0FB6803F00103002B07D0BE
:104B90007B681B686FF001021A617868FCF7A8FC5B
:104BA000BB6803F08003002B0CD0FB6803F080038C
:104BB000002B07D07B681B686FF080021A61786851
:104BC00000F0C8FDBB6803F04003002B0CD0FB686D
:104BD00003F04003002B07D07B681B686FF0400296
:104BE0001A61786800F0BDF9BB6803F02003002B60
:104BF0000CD0FB6803F02003002B07D07B681B68F8
:104C00006FF020021A61786800F09AFD00BF10373B
:104C1000BD4680BD80B586B000AFF860B9607A60EF
:104C20000023FB75FB6893F83C30012B01D1022374
:104C3000AEE0FB68012283F83C207B680C2B00F27D
:104C40009F8001A252F823F07D4C0008814D00089E
:104C5000814D0008814D0008BD4C0008814D0008C1
:104C6000814D0008814D0008FF4C0008814D00086F
:104C7000814D0008814D00083F4D0008FB681B680E
:104C8000B968184600F01EFAFB681B689A69FB6851
:104C90001B6842F008029A61FB681B689A69FB680E
:104CA0001B6822F004029A61FB681B689969BB6863
:104CB0001A69FB681B680A439A6164E0FB681B6819
:104CC000B968184600F06EFAFB681B689A69FB68C1
:104CD0001B6842F400629A61FB681B689A69FB6872
:104CE0001B6822F480629A61FB681B689969BB6843
:104CF0001B691A02FB681B680A439A6143E0FB6860
:104D00001B68B968184600F0C3FAFB681B68DA69CB
:104D1000FB681B6842F00802DA61FB681B68DA690D
:104D2000FB681B6822F00402DA61FB681B68D96922
:104D3000BB681A69FB681B680A43DA6123E0FB68F9
:104D40001B68B968184600F017FBFB681B68DA6936
:104D5000FB681B6842F40062DA61FB681B68DA6971
:104D6000FB681B6822F48062DA61FB681B68D96902
:104D7000BB681B691A02FB681B680A43DA6102E020
:104D80000123FB7500BFFB68002283F83C20FB7DFC
:104D900018461837BD4680BD80B584B000AF786036
:104DA00039600023FB737B6893F83C30012B01D101
:104DB0000223B4E07B68012283F83C207B68022256
:104DC00083F83D207B681B689B68BB60BB6823F051
:104DD0007703BB60BB6823F47F43BB607B681B68C1
:104DE000BA689A603B681B68B3F5005F3ED0B3F5C4
:104DF000005F00F28780B3F5805F00F08680B3F536
:104E0000805F7FD8702B1AD0702B7BD8602B50D04E
:104E1000602B77D8502B3CD0502B73D8402B58D0D8
:104E2000402B6FD8302B64D0302B6BD8202B60D028
:104E3000202B67D8002B5CD0102B5AD062E07B6807
:104E400018683B6899683B685A683B68DB6800F003
:104E500063FB7B681B689B68BB60BB6843F07703A0
:104E6000BB607B681B68BA689A604FE07B68186813
:104E70003B6899683B685A683B68DB6800F04CFB0C
:104E80007B681B689A687B681B6842F480429A6062
:104E90003CE07B6818683B6859683B68DB681A46E9
:104EA00000F0C0FA7B681B685021184600F019FB1F
:104EB0002CE07B6818683B6859683B68DB681A46D9
:104EC00000F0DFFA7B681B686021184600F009FBE0
:104ED0001CE07B6818683B6859683B68DB681A46C9
:104EE00000F0A0FA7B681B684021184600F0F9FA30
:104EF0000CE07B681A683B681B681946104600F096
:104F0000F0FA03E00123FB7300E000BF7B6801229D
:104F100083F83D207B68002283F83C20FB7B184609
:104F20001037BD4680BD80B483B000AF786000BF4D
:104F30000C37BD465DF8047B704780B483B000AF8A
:104F4000786000BF0C37BD465DF8047B704780B4C5
:104F500083B000AF786000BF0C37BD465DF8047BBE
:104F6000704780B483B000AF786000BF0C37BD4697
:104F70005DF8047B7047000080B485B000AF7860B6
:104F800039607B681B68FB607B68434A934213D09F
:104F90007B68B3F1804F0FD07B68404A93420BD0BF
:104FA0007B683F4A934207D07B683E4A934203D0D6
:104FB0007B683D4A934208D1FB6823F07003FB6095
:104FC0003B685B68FA681343FB607B68324A934234
:104FD0002BD07B68B3F1804F27D07B682F4A934258
:104FE00023D07B682E4A93421FD07B682D4A934280
:104FF0001BD07B682C4A934217D07B682B4A934284
:1050000013D07B682A4A93420FD07B68294A934287
:105010000BD07B68284A934207D07B68274A93428B
:1050200003D07B68264A934208D1FB6823F440737F
:10503000FB603B68DB68FA681343FB60FB6823F0A6
:1050400080023B685B691343FB603B689A687B683E
:10505000DA623B681A687B689A627B680E4A934200
:1050600003D07B68104A934203D13B681A697B687E
:105070001A637B681B6843F004027B681A607B68D4
:1050800001225A617B68FA681A6000BF1437BD4676
:105090005DF8047B704700BF000001400004004041
:1050A00000080040000C00400004014000400140A6
:1050B000004401400048014000180040001C00402E
:1050C0000020004080B487B000AF786039607B6812
:1050D0001B6A7B617B681B6A23F001027B681A6292
:1050E0007B685B683B617B689B69FB60FB6823F0C6
:1050F0007003FB60FB6823F00303FB603B681B68E5
:10510000FA681343FB607B6923F002037B613B6811
:105110009B687A6913437B617B68204A934203D082
:105120007B681F4A93420CD17B6923F008037B61A3
:105130003B68DB687A6913437B617B6923F0040376
:105140007B617B68154A934203D07B68144A934283
:1051500011D13B6923F480733B613B6923F40073F5
:105160003B613B685B693A6913433B613B689B6900
:105170003A6913433B617B683A695A607B68FA6815
:105180009A613B685A687B685A637B687A691A62DD
:1051900000BF1C37BD465DF8047B7047000001402E
:1051A0000004014080B487B000AF786039607B684C
:1051B0001B6A7B617B681B6A23F010027B681A62A2
:1051C0007B685B683B617B689B69FB60FB6823F4E1
:1051D000E043FB60FB6823F44073FB603B681B68A3
:1051E0001B02FA681343FB607B6923F020037B6199
:1051F0003B689B681B017A6913437B617B68224A89
:10520000934203D07B68214A93420DD17B6923F0FE
:1052100080037B613B68DB681B017A6913437B6118
:105220007B6923F040037B617B68174A934203D07C
:105230007B68164A934213D13B6923F480633B6138
:105240003B6923F400633B613B685B699B003A69FF
:1052500013433B613B689B699B003A6913433B6185
:105260007B683A695A607B68FA689A613B685A6859
:105270007B689A637B687A691A6200BF1C37BD46F7
:105280005DF8047B704700BF00000140000401404E
:1052900080B487B000AF786039607B681B6A7B613F
:1052A0007B681B6A23F480727B681A627B685B6888
:1052B0003B617B68DB69FB60FB6823F07003FB608C
:1052C000FB6823F00303FB603B681B68FA68134329
:1052D000FB607B6923F400737B613B689B681B0266
:1052E0007A6913437B617B68214A934203D07B68D0
:1052F000204A93420DD17B6923F400637B613B68B4
:10530000DB681B027A6913437B617B6923F480634A
:105310007B617B68164A934203D07B68154A9342AF
:1053200013D13B6923F480533B613B6923F4005361
:105330003B613B685B691B013A6913433B613B6816
:105340009B691B013A6913433B617B683A695A6068
:105350007B68FA68DA613B685A687B68DA637B6865
:105360007A691A6200BF1C37BD465DF8047B70473E
:10537000000001400004014080B487B000AF7860B5
:1053800039607B681B6A3B617B681B6A23F480522F
:105390007B681A627B685B687B617B68DB69FB60AA
:1053A000FB6823F4E043FB60FB6823F44073FB607D
:1053B0003B681B681B02FA681343FB603B6923F4DC
:1053C00000533B613B689B681B033A6913433B6195
:1053D0007B68124A934203D07B68114A934209D1F9
:1053E0007B6923F480437B613B685B699B017A693D
:1053F00013437B617B687A695A607B68FA68DA617B
:105400003B685A687B681A647B683A691A6200BF15
:105410001C37BD465DF8047B704700BF00000140AB
:105420000004014080B487B000AFF860B9607A60D2
:10543000FB681B6A7B61FB681B6A23F00102FB6847
:105440001A62FB689B693B613B6923F0F0033B6197
:105450007B681B013A6913433B617B6923F00A03B4
:105460007B617A69BB6813437B61FB683A699A6127
:10547000FB687A691A6200BF1C37BD465DF8047B81
:10548000704780B487B000AFF860B9607A60FB689D
:105490001B6A7B61FB681B6A23F01002FB681A62BF
:1054A000FB689B693B613B6923F470433B617B680C
:1054B0001B033A6913433B617B6923F0A0037B61C3
:1054C000BB681B017A6913437B61FB683A699A6187
:1054D000FB687A691A6200BF1C37BD465DF8047B21
:1054E000704780B485B000AF786039607B689B6896
:1054F000FB60FB6823F07003FB603A68FB681343B2
:1055000043F00703FB607B68FA689A6000BF1437BA
:10551000BD465DF8047B704780B487B000AFF8608B
:10552000B9607A603B60FB689B687B617B6923F4B0
:105530007F437B613B681A027B681A43BB68134355
:105540007A6913437B61FB687A699A6000BF1C37F4
:10555000BD465DF8047B704780B487B000AFF8604B
:10556000B9607A60BB6803F01F03012202FA03F3FB
:105570007B61FB681A6A7B69DB431A40FB681A622D
:10558000FB681A6ABB6803F01F03796801FA03F32A
:105590001A43FB681A6200BF1C37BD465DF8047BE6
:1055A0007047000080B485B000AF786039607B68D8
:1055B00093F83C30012B01D102235AE07B68012291
:1055C00083F83C207B68022283F83D207B681B68BF
:1055D0005B68FB607B681B689B68BB60FB6823F0B3
:1055E0007003FB603B681B68FA681343FB607B68D1
:1055F0001B68FA685A607B681B68214A934222D074
:105600007B681B68B3F1804F1DD07B681B681D4A07
:10561000934218D07B681B681B4A934213D07B6867
:105620001B681A4A93420ED07B681B68184A934243
:1056300009D07B681B68174A934204D07B681B68BB
:10564000154A93420CD1BB6823F08003BB603B68D2
:105650005B68BA681343BB607B681B68BA689A6072
:105660007B68012283F83D207B68002283F83C2080
:10567000002318461437BD465DF8047B704700BF11
:10568000000001400004004000080040000C004001
:1056900000040140004001400018004080B485B083
:1056A00000AF786039600023FB607B6893F83C3082
:1056B000012B01D102233DE07B68012283F83C20CD
:1056C000FB6823F0FF023B68DB681343FB60FB6869
:1056D00023F440723B689B681343FB60FB6823F430
:1056E00080623B685B681343FB60FB6823F40062E5
:1056F0003B681B681343FB60FB6823F480523B68E4
:105700001B691343FB60FB6823F400523B685B6931
:105710001343FB60FB6823F480423B68DB6913435F
:10572000FB607B681B68FA685A647B68002283F818
:105730003C20002318461437BD465DF8047B7047B3
:1057400080B483B000AF786000BF0C37BD465DF811
:10575000047B704780B483B000AF786000BF0C3723
:10576000BD465DF8047B70472DE9FF4757EC106B91
:10577000002F0C4619463B46BBBF07F100431F46AE
:1057800000232D230B700D9BDDF830A0914623F0F4
:105790002008BCBF32461646B8F1460F05D0B8F116
:1057A000450F00D10134022100E0032103AB019336
:1057B00002AB009347EC106B5346224600F038FED4
:1057C000B8F1470F054619D119F0010F0ED000EBC3
:1057D00004090022002330463946FBF775F908B169
:1057E000CDF80C903022039B4B451ED3039B0E9AA1
:1057F0005B1B2846136004B0BDE8F087B8F1460F84
:1058000000EB0409E5D10378302B0AD100220023F4
:1058100030463946FBF758F918B9C4F10104CAF803
:105820000040DAF800309944D3E7591C03911A700C
:10583000D9E7F7B50029BABF49422D232B230929FF
:105840000270437029DD0DF107031D460A271A4631
:10585000B1FBF7F607FB1614303402F8014C0C4686
:10586000632C03F1FF333146F1DC3031941E03F831
:10587000011C411C2346AB420AD30DF109039B1ABC
:10588000AC4288BF002302330344181A03B0F0BDB2
:1058900013F8016B01F8016FEDE7302330318370AD
:1058A000C170031DF1E700002DE9F04F8DB00C46EB
:1058B000DDF8588016461F46054600F0B9FC03681F
:1058C00004931846FAF7D4FC00230A93D8F8003062
:1058D0000590073323F0070303F1080294F818A09A
:1058E000D4F800B0C8F80020D3E9008929F00043BB
:1058F0000793CDF81880C4E91289DDE906019C4BB5
:105900004FF0FF32FBF712F970BBDDE90601984B4F
:105910004FF0FF32FBF7ECF830BB0022002340468B
:105920004946FBF7DBF810B12D2384F84330914A48
:10593000914BBAF1470F8CBF9046984603232361E1
:105940002BF0040323604FF00009009733460BAAA5
:105950002146284600F0D2F9013040F08D804FF00A
:10596000FF300DB0BDE8F08F42464B4640464946F9
:10597000FBF7DCF840B14B46002BBCBF2D2384F86D
:1059800043307E4A7E4BD4E763680AF0DF0206921A
:105990005A1C3BD1062363604BF4806200232260D3
:1059A00003930AABCDE901A309AB0093616849EC0D
:1059B000108B0DF123032846FFF7D6FE069B0999AD
:1059C000472B804629D1C81C02DB6368994241DD20
:1059D000AAF1020A5FFA8AFA0139524604F150002C
:1059E0000991FFF726FF0A9A1318012A81462361BD
:1059F00002DC2268D20701D5013323619DF82330F0
:105A0000002BA2D02D2384F843309EE7069A472A24
:105A1000C2D1002BC0D10123BDE7BAF1650FDBD99C
:105A2000BAF1660F18D1002963680BDD216113B943
:105A30002268D00702D501330B442361A1654FF0E2
:105A40000009DBE713B92268D20701D50233F4E776
:105A50000123F2E74FF0670A0A9B994205DB2368AE
:105A60002161D807EAD54B1CE7E70029D4BFC1F173
:105A7000020201221344E0E723685A0507D4236990
:105A8000424631462846B84701302BD167E7BAF184
:105A9000650F40F2DD80D4E9120100220023FBF7FC
:105AA00013F8002833D0374A012331462846B84737
:105AB00001303FF454AFDDE90938434502DB236888
:105AC000D8070FD5DDE9042331462846B847013011
:105AD0003FF445AF4FF0000908F1FF3804F11A0A0E
